:10000000ACC20000D7C20000D5C20000D3C20000BD
:10001000D1C200000C9438110C944711CBC20000DF
:10002000C9C20000C7C20000C5C20000C3C20000B0
:10003000C1C20000E6C30000BDC20000BBC2000098
:10004000B9C20000B7C20000B5C20000B3C20000D0
:10005000B1C20000AFC20000ADC20000ABC20000E0
:10006000A9C200007FC40000F2C40000A3C20000C7
:10007000A1C200009FC200009DC200009BC2000000
:1000800099C2000097C2000095C2000093C2000010
:100090007AC50000B5C500008DC200008BC200000B
:1000A00089C2000087C2000085C2000083C2000030
:1000B00081C200007FC200007DC200007BC2000040
:1000C00079C2000077C2000075C200001FC60000A0
:1000D00052C600006FC2000009C7000040C7000000
:1000E00069C200008F0BA70BB50BC10BB20D6F0FD0
:1000F0006F0F6F0F6F0F6F0F090F160F230F300F5A
:100100003D0F620FCC0BD80BF00B080C150C250C17
:100110003E0C520C5F0C6C0C790C860C930CA00CF2
:10012000AD0CBA0CC70CD40CE10CEF0C030D160D82
:10013000230D300D3D0D4A0D570D640D710D7E0DD3
:100140008B0D980D43485259534C455243434453E9
:1001500043495343414E4E45520000000000000009
:1001600060F0909010100000F0F00000F0F000C07F
:10017000E030101010100000F0F08080F0F000006F
:1001800000000000000080FE0302061870C000009E
:10019000000000000000000000000000000000005F
:1001A0000080C060A0502808142C98F000000000C7
:1001B000000000000000000000000000000000003F
:1001C000000000000000000000000000000000002F
:1001D000000000000000000000000000000000001F
:1001E000080808090F060000070F08080F0700039A
:1001F000070C0808080800000F0F00000F0F000090
:100200000000000080F06F200000000000000306E6
:1002100004040C080808080808081010D0A00804F6
:10022000C3310C01A0F8F8340000E103FE00000027
:1002300000000000000000000000000000000000BE
:1002400000000000000000000000000000000000AE
:100250000000000000000000000000FEFE02028618
:10026000FC780078FE860286FE780078FC862222E2
:10027000E2E20000FEFE22222202000080E01808D6
:1002800004060381808000000000000000000000E0
:10029000000000000000000000000000000001035A
:1002A0000C0018362160E0180403D0FE63800000C3
:1002B0000000000000000020E0C00000C0E02000BE
:1002C000E0E0202020200000E0E02020E0C000202E
:1002D00060C08080C06020000000000101010101B9
:1002E0000000000001010101010000000001010106
:1002F00001010000010101010101E03C07000000D3
:1003000000008FDA3F1F0F02000000000000000015
:10031000303864525A7E7E3C181000000000000005
:10032000000000602020600000040F000007FE00B5
:100330000000000000000000010F1E1E0F01000061
:100340001F1F1212121000001F1F060F19100000AD
:1003500000011F1F0100000000000000000000005D
:10036000000000000000000000000000000000008D
:100370000000000000000000F807010000B0187C39
:10038000FEFFFFCECE7E3C180000000808F04000C3
:10039000000000000000000000000000000000005D
:1003A000000000000000000000C83C000000031E28
:1003B0007080000000001EFEE0F8F8E0FE3E0078CD
:1003C000FE860286FE78001EFEE0F8F8E0FE3E00A3
:1003D000000000000000000000000000000000001D
:1003E000000000000000000000000000000000000D
:1003F00000000000000000003FF08000000304182F
:10040000789B1F1930303020206060602020202031
:1004100000000000000000000000000000000000DC
:10042000000000008060380E0300000000000000A3
:100430000007F8C0000000010100000101000000F9
:1004400001010101010000000101000001010000A3
:10045000000000000000000000000000000000009C
:10046000000000000000000000000000000000008C
:1004700000000000000000000000030C70E080009D
:10048000000003060404020202020202000000004F
:10049000000000000000000000000000000000005C
:1004A0000000000100000000000000C06018000013
:1004B00000000003060C0000000000000000000027
:1004C000000000000000000000000000000000002C
:1004D000000000000000000000000000000000001C
:1004E000000000000000000000000000000000000C
:1004F00000000000000000000000007C0701000177
:1005000002040C1810202060404040404040404011
:1005100040404020200000000000000000000000DB
:1005200000000000000000080402010000000000BC
:1005300000000000000000000000000000000000BB
:1005400000000000000000000000000000000000AB
:100550000000000000000000000011241FBECFEFCB
:10056000D1E2DEBFCDBF00E00CBF14BE0FB6F894E1
:10057000A89580916000886180936000109260006F
:100580000FBE12E0A0E0B2E0E6EDF3E200E00BBF48
:1005900002C007900D92A83BB107D9F725E1A8EB5F
:1005A000B2E001C01D92AE35B207E1F70E945611CC
:1005B0000C94E91125CDA0E8B0E01C92E1E8F0E050
:1005C0001082109285001092840080E284B980E449
:1005D0008C9387E090E0909389008093880089E075
:1005E00080830895109280001092810010928500FF
:1005F00010928400109289001092880008950000E3
:1006000000000000000000000000000000000000EA
:1006100000000000000000000000000000000000DA
:1006200000000000000000000000000000000000CA
:1006300000000000000000000000000000000000BA
:10064000000008959FEF91B988B9109AD8DF1098EB
:10065000D6CF0895886BF6CF08951298119A089511
:100660001198129A0895CF93C82F803428F4F5DF9B
:100670008C2F8064E7DF05C0F3DF80EC8C0F806493
:10068000E1DFCF91089580912D14803410F4E5CFEF
:100690000895E6CF0895F7DF17B8139882B1816106
:1006A00082B9ADDF86B197B19FEF97B992B19E7EC7
:1006B00092B90895F0DF829581700895CF93DF930A
:1006C000D82FC62F80932D1460932E14DCDF8D2F2E
:1006D000CADF8C2F869586958695BCDFDF91CF91FA
:1006E0000895CF93C82F60912E1480912D14E6DFCA
:1006F0008FEF87B9C8B982B1896082B980DF10985D
:1007000013987DDF80912D148F5F80932D14CF91EE
:1007100008951F93CF93DF93D82F10E0612F80E0CF
:10072000CDDFC0E08D2FDDDFCF5FC038D9F7185F98
:100730001034A1F7DF91CF911F91089580E0E9CFA8
:1007400008958BDF8FE37EDF8BDF8FE37BCF089510
:1007500081B18FEF81B997B187B915982FEF89EFE4
:1007600090E0215080409040E1F700C00000159AD1
:1007700001C045DF9FDF8111FCCFE3DFDFDF60E0F9
:1007800080E09CCF0895FF920F931F93CF93DF9348
:10079000EC01F12C6F2D80E091DF8E0100581F4F8E
:1007A000FE0184919EDF2196C017D107C9F7F8E0BA
:1007B000FF0EE80180E4F812EDCFDF91CF911F9199
:1007C0000F91FF9008951092B9008CE08093B800CB
:1007D000089582E08093B00094E09093B1008093FC
:1007E00070008AEF8093B30008952FB7F89460915A
:1007F000B8027091B9028091BA029091BB022FBFEA
:1008000008951F920F920FB60F9211248F939F930A
:10081000AF93BF938091B8029091B902A091BA02B0
:10082000B091BB020196A11DB11D8093B8029093B7
:10083000B902A093BA02B093BB02BF91AF919F914E
:100840008F910F900FBE0F901F9018958F929F92CF
:10085000AF92BF92CF92DF92EF92FF920F931F93CE
:10086000CF93DF93CDB7DEB7CDB6DEB6470136E026
:10087000830E911CADB7BEB7A819B9090FB6F8948D
:10088000BEBF0FBEADBFEDB7FEB731965F0193E3BC
:1008900011969C93F7013296D5011196FC9311970E
:1008A00092E09E0D12969C93B0E16B9FB0011124D3
:1008B000642BE0E48E9FC0011124682BD5011396B0
:1008C0006C93139714962C93E114F104A9F1A02FC3
:1008D000B12FF5013596A7014B5F5F4F4A0D5B1DA8
:1008E0002D912193E417F507D9F7B5E0EB0EF11C34
:1008F000E2E0EE16F10460F0F501319695012E0D5F
:100900003F1D80E09191890FE217F307D9F701C0ED
:1009100080E0F501EE0DFF1D80838114910481F0CC
:100920008501A80CB91CD8018D918D0190E0B6D23B
:100930000A151B05C1F704C0B5E0EB0EF11CDCCFB6
:100940000FB6F894DEBE0FBECDBEDF91CF911F91E2
:100950000F91FF90EF90DF90CF90BF90AF909F905E
:100960008F9008951F920F920FB60F9211240BB61D
:100970000F922F933F934F935F936F937F938F9338
:100980009F93AF93BF93EF93FF934091C00020914B
:10099000C60030E048718091A914882379F1406441
:1009A0001092A9148091751490917614A0917714E7
:1009B000B09178140196A11DB11D80937514909388
:1009C0007614A0937714B09378148091AE1350915D
:1009D000AD1390E08096851B91098F719927892B23
:1009E00069F0E091AE13EF71F0E0EE0FFF1FEF54EE
:1009F000FC4E808191819062918380838091AE13BF
:100A000090E001968F7199276091AD1370E068179F
:100A1000790751F08093AE13342B880F991FFC0196
:100A2000EF54FC4E31832083FF91EF91BF91AF9142
:100A30009F918F917F916F915F914F913F912F91F6
:100A40000F900BBE0F900FBE0F901F9018951F9226
:100A50000F920FB60F9211240BB60F928F939F93A4
:100A6000EF93FF939091B0138091AF13981779F0A3
:100A70008091AF1390E001968F7199278093AF1307
:100A8000FC01EF50FC4E80818093C60005C0E1EC74
:100A9000F0E080818F7D8083FF91EF919F918F9116
:100AA0000F900BBE0F900FBE0F901F9018951092D5
:100AB000B0131092AF131092AE131092AD1399238E
:100AC00024F422E02093C0009F779093C500809388
:100AD000C40088E98093C10086E08093C200089535
:100AE0009091AE138091AD13981781F08091AD1362
:100AF00090E001968F7199278093AD13880F991F0D
:100B0000FC01EF54FC4E80819181089580E092E0D9
:100B100008959091AE138091AD13981769F0E0910C
:100B2000AD13F0E03196EF71FF27EE0FFF1FEF548A
:100B3000FC4E80819181089580E092E0089540917B
:100B4000B01350E04F5F5F4F4F7155272091AF13A7
:100B500030E024173507D1F3FA01EF50FC4E8083C3
:100B60004093B013E1ECF0E08081806280830895CF
:100B70008091AE132091AD1390E08096821B910975
:100B80008F71992708951F920F920FB60F9211241B
:100B90000BB60F922F933F934F935F936F938F9367
:100BA0009F93EF93FF938091C8002091CE0030E097
:100BB000682F687180914A1390E001968F71992790
:100BC0004091491350E04817590751F080934A1358
:100BD000362B880F991FFC01E35BFC4E3183208389
:100BE000FF91EF919F918F916F915F914F913F9105
:100BF0002F910F900BBE0F900FBE0F901F90189566
:100C00001F920F920FB60F9211240BB60F928F9373
:100C10009F93EF93FF9390914C1380914B139817F0
:100C200079F080914B1390E001968F719927809312
:100C30004B13FC01E357FC4E80818093CE0005C02E
:100C4000E9ECF0E080818F7D8083FF91EF919F91AF
:100C50008F910F900BBE0F900FBE0F901F901895A5
:100C600010924C1310924B1310924A131092491386
:100C7000992324F422E02093C8009F779093CD001D
:100C80008093CC0088E98093C90086E08093CA00F5
:100C9000089590914A1380914913981781F080919B
:100CA000491390E001968F71992780934913880F1B
:100CB000991FFC01E35BFC4E80819181089580E0E7
:100CC00092E0089540914C1350E04F5F5F4F4F7199
:100CD000552720914B1330E024173507D1F3FA0143
:100CE000E357FC4E808340934C13E9ECF0E08081A5
:100CF00080628083089580914A132091491390E087
:100D00008096821B91098F71992708951F920F92E7
:100D10000FB60F9211240BB60F922F933F934F9360
:100D20008F939F93EF93FF938091D0004091D600D3
:100D30008091430390914403019697702091410361
:100D4000309142038217930741F0909344038093BC
:100D50004303FC01E75BFC4F4083FF91EF919F91C0
:100D60008F914F913F912F910F900BBE0F900FBE1F
:100D70000F901F9018951F920F920FB60F9211248B
:100D80000BB60F922F933F938F939F93EF93FF9305
:100D90002091470330914803809145039091460389
:100DA0002817390789F080914503909146030196F1
:100DB00097709093460380934503FC01E75BF44FE3
:100DC00080818093D60005C0E1EDF0E080818F7DC9
:100DD0008083FF91EF919F918F913F912F910F9081
:100DE0000BBE0F900FBE0F901F90189510924803E6
:100DF0001092470310924603109245031092440349
:100E0000109243031092420310924103992324F459
:100E100022E02093D0009F779093D5008093D40058
:100E200088E98093D10086E08093D20008952091D4
:100E3000430330914403809141039091420328176A
:100E4000390781F080914103909142030196977098
:100E50009093420380934103FC01E75BFC4F808148
:100E600090E0089580E092E008952091430330914E
:100E7000440380914103909142032817390759F0A8
:100E8000E0914103F09142033196F770E75BFC4F2C
:100E9000808190E0089580E092E0089540914703BA
:100EA000509148034F5F5F4F577020914503309139
:100EB000460342175307C9F3FA01E75BF44F8083F7
:100EC0005093480340934703E1EDF0E08081806256
:100ED00080830895809143039091440320914103BE
:100EE00030914203821B930B977008951F920F92CB
:100EF0000FB60F9211240BB60F922F933F934F937F
:100F00005F938F939F93EF93FF93209130013091E4
:100F1000360128718091BE0290E001968F73992767
:100F20004091BD0250E04817590739F08093BE0246
:100F3000FC01EF53FD4F308301C024E02093BC023D
:100F4000FF91EF919F918F915F914F913F912F91E1
:100F50000F900BBE0F900FBE0F901F9018951F9211
:100F60000F920FB60F9211240BB60F928F939F938F
:100F7000EF93FF939091C0028091BF02981779F090
:100F80008091BF0290E001968F7399278093BF02F2
:100F9000FC01EF5FFC4F80818093360105C0E1E3E7
:100FA000F1E080818F7D8083FF91EF919F918F9100
:100FB0000F900BBE0F900FBE0F901F90189598E0EA
:100FC00088E10FB6F894A895809360000FBE9093C7
:100FD0006000FFCFCF93DF931F921F92CDB7DEB794
:100FE00080915A1590915B15009731F4CE018D5583
:100FF00095419A83898308C09E012F5F3F4FA901C5
:10100000481B590B5A83498389819A810F900F900D
:10101000DF91CF91089501C063DDAADD892BE1F74F
:101020001092261410922414109225148FE790E049
:101030003EDDC1DA81E080932C14089501C029DEE1
:101040005ADE892BE1F71092231410922214109289
:1010500021148FE790E004DE81E080932B14089543
:10106000EF92FF920F931F93CF93DF9381DD892B34
:1010700009F483C04EDD292F30E02034310509F01A
:1010800070C080912614882309F46BC080911A14D3
:10109000882309F451C08091DA14823F09F58091C8
:1010A000DB149091141489131BC090911B14E92F29
:1010B000F0E0E15DFB4E80839F5F90931B14909165
:1010C0000402891739F08F5F8093141481E08093B4
:1010D000070232C01092070281E0809319142CC0DD
:1010E00084DB00911514109116142091171430917F
:1010F0001814AB01BC01401B510B620B730B8091A8
:10110000050290910602A0E0B0E084179507A607BB
:10111000B70790F48091141490910402891739F064
:101120008F5F8093141481E08093070205C01092B2
:10113000070281E080931914E0902614F12C0AED47
:1011400014E120E049E060E082E080DB10922614A8
:10115000C7DC8093DA14809126148F5F8093261465
:101160000CC0C0912614D0E0BBDCC652DB4E888395
:10117000809126148F5F80932614809125148823F4
:10118000C1F08091A9148823A1F0809124148823B0
:1011900061F0C0E0EC2FF0E0EA53FB4E8081CFDC41
:1011A000CF5F80912414C817A8F3109224141092D2
:1011B000251480911A14882339F18091070288231D
:1011C00019F18091A9148823F9F010920702EBEA33
:1011D000F4E182EB80838091141481831282138264
:1011E00014828E548583EF0101EB14E18991A7DC11
:1011F000C017D107D9F7F9DA609315147093161454
:10120000809317149093181480911914882389F0EF
:101210001092191410921A146894EE24E5F8F12C27
:101220000FE214E126E045E060E081E00FDB109280
:101230001B14DF91CF911F910F91FF90EF900895B4
:101240003F924F925F926F927F928F929F92AF9256
:10125000BF92CF92DF92EF92FF920F931F93CF93A3
:10126000DF9377247394412C0F2EF0E0CF2EF2E021
:10127000DF2EF02D642C572C342C3DDD892BF9F01A
:101280003ADD082F882381F0142DC0912314D0E07B
:1012900000DDC15BDB4E8883909123149F5F9093A8
:1012A00023141F5F0113F1CFA0DA60931D14709314
:1012B0001E1480931F149093201470921C1495DABE
:1012C00000911D1410911E1420911F1430912014B0
:1012D000DC01CB01801B910BA20BB30BC397A105C3
:1012E000B10588F080912314882359F0E82EF12C61
:1012F0000FE414E1242D49E0642D83E0A7DA409245
:10130000231440921C1480912214882309F447C0AE
:101310008091111481117FC080911C1481117BC0B8
:1013200080912114882339F1042DE5DCEC01E02FB4
:10133000F0E0E758FB4E8081C5DC57DA4B015C01D9
:10134000162DDD270DC051DADC01CB018819990972
:10135000AA09BB09152DC397A105B10508F4132DE2
:10136000CADCC817D90710F0112369F30F5F809109
:1013700021140817D0F280911314811104C04092F7
:1013800021144092221431DA60931D1470931E14BC
:1013900080931F149093201470921C146ECF809130
:1013A0001114811134C037C0A6DCEC01F601808134
:1013B00089DC1BDA4B015C01142DDD270DC015DA29
:1013C000DC01CB0188199909AA09BB09172DC3971C
:1013D000A105B10508F4162D8EDCC817D90710F049
:1013E000112369F3F60181818F3F71F08F5F818353
:1013F000FCD960931D1470931E1480931F14909356
:10140000201470921C1439CF1092010204C08091F4
:101410001C14882349F2DF91CF911F910F91FF9007
:10142000EF90DF90CF90BF90AF909F908F907F9084
:101430006F905F904F903F9008955C9A5D980895EB
:101440005C985D9A08955C985D980895549A559AB1
:10145000813031F018F0823031F008C0F4CF0895B7
:10146000F2DFEBCF0895EFDFEBCF0895ECDFE5CFB0
:10147000089510922C1410922B1401C031DB78DBEC
:10148000892BE1F701C005DC36DC892BE1F7AAD80E
:1014900080E0DCDF109226141092251410922414A0
:1014A00010922314109222141092211408952F9256
:1014B0003F924F925F926F927F928F929F92AF92E4
:1014C000BF92CF92DF92EF92FF920F931F93CF9331
:1014D000DF93CDB7DEB7C35BD1090FB6F894DEBF9B
:1014E0000FBECDBFCDB6DEB6F5DC059708F497C6C6
:1014F000C655DF4F1882CA5AD0408FEFC755DF4F0D
:101500008883C95AD04071D94B015C01712C11E01C
:10151000E12C15C08CDC69D9AB01BC014819590913
:101520006A097B098091080290910902A0E0B0E06D
:10153000712E84179507A607B70708F07E2C95DC57
:10154000833311F0772031F3C5DC892B09F467C6AA
:101550006EDC682E6CDCC555DF4F8883CB5AD040DB
:1015600066DCC455DF4F8883CC5AD040C555DF4F69
:101570005880CB5AD040412C482A82010F5F1F4F20
:101580000E3F27E0120760F0EE24E394F12C8E0169
:1015900007551F4F22E04FE060E081E057D93FC67A
:1015A000180133E0231A31088DB79EB7C155DF4FBC
:1015B00099838883CF5AD040EDB7FEB7E219F3097B
:1015C0000FB6F894FEBF0FBEEDBF2DB73EB72F5F2D
:1015D0003F4FC355DF4F39832883CD5AD040CE5477
:1015E000DF4F39832883C25BD040FFD84B015C01B9
:1015F000712CFF24F394E12C13C0F7D8AB01BC018C
:10160000481959096A097B0980910A0290E0A0E013
:10161000B0E07F2C84179507A607B70708F07E2C4B
:1016200059DC8017910718F4772039F36EC57110D3
:101630006CC5FDDBCF54DF4F8883C15BD040F7DB47
:101640005C012114310409F4B7C5C355DF4FE880AC
:10165000F980CD5AD0408201025011090E0D1F1D94
:101660004701E5DBF40181934F01E017F107C9F76A
:101670008DC52191920F0E171F07D9F721E0F3E3D3
:101680006F12B0C59813BEC5CF54DF4F9881C15BB0
:10169000D04092959F709370CF54DF4F8881C15B8B
:1016A000D0408F70CF54DF4F3881C15BD04032952E
:1016B00036953695337009F0E6C4913049F138F02B
:1016C000923009F419C4933009F473C4CFC42223AF
:1016D00089F07101C355DF4F08811981CD5AD0407F
:1016E0002A2DCF54DF4F4881C15BD04060E080E0BD
:1016F000ADD840C5E12CF12C00E010E02A2DCF54EC
:10170000DF4F4881C15BD04060E080E09FD832C5A8
:1017100090E0FC018827EE58FF4F8F4F52C6A9DE9C
:10172000EE24E394F12C8E0106551F4F20E040E09B
:1017300060E081E08BD82FEF33EC89E0215030401E
:101740008040E1F700C000000E94B50238DC91DE65
:101750000F2EF5E1EF2EF12CF02D01EB14E120E03E
:1017600041E060E081E072D805C5EE24E394F12CFD
:101770008E0106551F4F20E042E060E081E066D810
:10178000F9C4F501FF27E032F10508F0DEC1882732
:10179000EE57FF4F8F4F15C6EE24E394F12C8E01C8
:1017A00007551F4F28E043E060E081E04FD8E2C4D6
:1017B000EE24E394F12C8E0106551F4F21E043E007
:1017C00060E081E043D882E390E0A0E0B0E0809365
:1017D0000B0290930C02A0930D02B0930E02CAC4A8
:1017E000EE24E394F12C8E0106551F4F22E043E0D6
:1017F00060E081E02BD884EF91E0A0E0B0E080933E
:101800000B0290930C02A0930D02B0930E02B2C48F
:1018100002DCEE24E394F12C8E0106551F4F23E0E9
:1018200043E060E081E012D8A5C410922C140E941D
:10183000F202EE24E394F12C8E0106551F4F24E0B2
:1018400043E060E081E002D895C4F8DBC355DF4F88
:10185000E881F981CD5AD0408081F8DDEE24E3940F
:10186000F12CC355DF4F08811981CD5AD04025E0B6
:1018700043E060E081E00E9426047CC410922B14B7
:1018800080E0E4DDEE24E394F12CC355DF4F0881C2
:101890001981CD5AD04026E043E060E081E00E940B
:1018A000260468C4EE24E394F12C8E0106551F4FE4
:1018B00027E043E060E081E00E9426045BC4EE2460
:1018C000E394F12C8E0106551F4F28E043E060E0C1
:1018D00081E00E9426044EC4EE24E394F12C8E0194
:1018E00006551F4F29E043E060E081E00E94260496
:1018F00041C4EE24E394F12C8E0106551F4F2AE0DB
:1019000043E060E081E00E94260434C4EE24E394C6
:10191000F12C8E0106551F4F2BE043E060E081E083
:101920000E94260427C4EE24E394F12C8E01065570
:101930001F4F2CE043E060E081E00E9426041AC4BF
:10194000EE24E394F12C8E0106551F4F2DE043E069
:1019500060E081E00E9426040DC4EE24E394F12CA3
:101960008E0106551F4F2EE043E060E081E00E94AB
:10197000260400C4EE24E394F12C8E0106551F4F7B
:101980002FE043E060E081E00E942604F3C3EE24F0
:10199000E394F12C8E0106551F4F20E143E060E0F7
:1019A00081E00E942604E6C3EE24E394F12C8E012C
:1019B00006551F4F21E143E060E081E00E942604CC
:1019C000D9C3EE24E394F12C8E0106551F4F22E17A
:1019D00043E060E081E00E942604CCC35AD98BD951
:1019E000892BE1F78FE090E03BD9EE24E394F12CD2
:1019F0008E0106551F4F23E143E060E081E00E9425
:101A00002604B8C346D977D9892BE1F78FE790E050
:101A100027D9EE24E394F12C8E0106551F4F24E1C3
:101A200043E060E081E00E942604A4C3EE24E39436
:101A3000F12C8E0106551F4F25E143E060E081E067
:101A40000E94260497C3EE24E394F12C8E010655E0
:101A50001F4F26E143E060E081E00E9426048AC334
:101A6000EE24E394F12C8E0106551F4F27E143E04D
:101A700060E081E00E9426047DC3EE24E394F12C13
:101A80008E0106551F4F28E143E060E081E00E948F
:101A9000260470C3EE24E394F12C8E0106551F4FEB
:101AA00029E143E060E081E00E94260463C3EE2464
:101AB000E394F12C8E0106551F4F2AE143E060E0CC
:101AC00081E00E94260456C3EE24E394F12C8E019B
:101AD00006551F4F2BE143E060E081E00E942604A1
:101AE00049C3EE24E394F12C8E0106551F4F2CE1DF
:101AF00043E060E081E00E9426043CC3EE24E394CE
:101B0000F12C8E0106551F4F2DE143E060E081E08E
:101B10000E9426042FC3EE24E394F12C8E01065577
:101B20001F4F2EE143E060E081E00E94260422C3C3
:101B3000EE24E394F12C8E0106551F4F2FE143E074
:101B400060E081E00E94260415C3EE24E394F12CAA
:101B50008E0107551F4F27E043E060E081E00E94BF
:101B6000260408C3BB24F5E0AF16B10409F47BC01A
:101B7000C4F432E0A316B10409F44EC03CF4A1143D
:101B8000B10481F1AA94AB28D1F136C1E3E0AE16DD
:101B9000B10409F44EC0F4E0AF16B10409F456C024
:101BA0002BC128E0A216B10409F4C8C05CF486E099
:101BB000A816B10409F464C097E0A916B10409F4A9
:101BC000ACC01AC1EDEFAE16B10409F4DBC0FEEFF4
:101BD000AF16B10409F4F6C02CEFA216B10409F057
:101BE0000BC1C0C0EE24E394F12C8E0107551F4FAA
:101BF00028E044E060E081E00E942604BBC2EE24BD
:101C0000E394F12C8E0106551F4F21E044E060E083
:101C100081E00E942604AEC2EE24E394F12C8E01F2
:101C200006551F4F22E044E060E081E00E94260458
:101C3000A1C2EE24E394F12C8E0106551F4F23E040
:101C400044E060E081E00E94260494C2EE24E39424
:101C5000F12C8E0106551F4F24E044E060E081E046
:101C60000E94260487C2EE24E394F12C8E010655CF
:101C70001F4F25E044E060E081E00E9426047AC224
:101C800081E080931A1432E02316310499F4C3558D
:101C9000DF4FE881F981CD5AD040808180931414C0
:101CA00081818093040288EC90E0909306028093F7
:101CB000050226C0F4E02F163104B9F4C355DF4FF6
:101CC000E881F981CD5AD0408081809314148181BC
:101CD00080930402828190E0982F88272381822BB1
:101CE00090930602809305020BC0109214148EEF9D
:101CF0008093040288EC90E09093060280930502A2
:101D0000EE24E394F12C8E0106551F4F26E044E0AB
:101D100060E081E00E9426042DC25CD999838A8309
:101D20006894EE24E1F8F12C8E010F5F1F4F27E03D
:101D300045E060E081E00E9426041CC20E94F50399
:101D400099838A837B836C836894EE24E2F8F12C78
:101D50008E010F5F1F4F28E045E060E081E00E94A8
:101D6000260408C281E080931114EE24E394F12C40
:101D70008E0106551F4F20E046E060E083E00E94A0
:101D80002604F8C110921114EE24E394F12C8E0174
:101D900006551F4F20E046E060E083E00E942604E5
:101DA000E9C1282F30E0F901E758FB4ECE54DF4F50
:101DB000A881B981C25BD040A20FB31F9C919083D0
:101DC0008F5F01C080E0282F30E02215330548F3F3
:101DD0002092211481E08093221480931314EE2426
:101DE000E394F12C8E0106551F4F20E046E060E0A1
:101DF00083E00E942604BEC1EE24E394F12C8E0100
:101E000007551F4F27E044E060E081E00E94260470
:101E1000B1C1EE24E394F12C8E0106551F4F20E052
:101E20004AE060E081E00E942604A4C1EE24E3942D
:101E3000F12C8E0106551F4F20E04BE060E081E061
:101E40000E94260497C1EE24E394F12C8E010655DE
:101E50001F4F20E04CE060E081E00E9426048AC130
:101E6000EE24E394F12C8E0106551F4F20E04DE047
:101E700060E081E00E9426047DC188EAEFE0F2E0A4
:101E8000DE01119601900D928A95E1F78E010F5FA8
:101E90001F4F7E01F8EAEF0EF11CF80181918F01CE
:101EA0000E944E070E151F05C1F7EE24E394F12C96
:101EB0008E0106551F4F20E04EE060E081E00E9459
:101EC000260458C1EE24E394F12C8E0106551F4FD1
:101ED00020E04FE060E081E00E9426044BC1EE2448
:101EE000E394F12C8E0107551F4F26E04FE060E090
:101EF00081E00E9426043EC1873081F18830D9F10B
:101F0000863009F049C021143104B1F080E0282F57
:101F100030E0F901EA53FB4ECE54DF4FA881B9817E
:101F2000C25BD040A20FB31F9C9190838F5F282F7C
:101F300030E02215330558F32092241481E0809379
:101F40002514EE24E394F12C8E0106551F4F20E05A
:101F500046E060E082E00E9426040CC1EE24E39497
:101F6000F12C8E0106551F4F20E047E060E082E033
:101F70000E942604FFC01092121410922414EE2422
:101F8000E394F12C8E0106551F4F20E048E060E0FD
:101F900082E00E942604EEC0EE24E394F12C8E0130
:101FA00007551F4F26E04FE060E082E00E942604C4
:101FB000E1C0873081F18830D9F1863009F049C01D
:101FC00021143104B1F080E0282F30E0F901E75806
:101FD000FB4ECE54DF4FA881B981C25BD040A20F27
:101FE000B31F9C9190838F5F282F30E0221533051B
:101FF00058F32092211481E080932214EE24E3947C
:10200000F12C8E0106551F4F20E046E060E083E092
:102010000E942604AFC0EE24E394F12C8E010655F5
:102020001F4F20E047E060E083E00E942604A2C04A
:102030001092131410922114EE24E394F12C8E01CB
:1020400006551F4F20E046E060E083E00E94260432
:1020500091C0EE24E394F12C8E0107551F4F26E02A
:102060004FE060E083E00E94260484C0EE24E39405
:10207000F12C8E0107551F4F25E04FE060E081E015
:102080000E94260477C0EE24E394F12C8E010755BC
:102090001F4F2EE04FE060E081E00E9426046AC0FE
:1020A000EE24E394F12C8E0107551F4F21E04FE001
:1020B00060E081E00E9426040E94F5034B015C0170
:1020C00011E000E017C00E94F503AB01BC01481904
:1020D00059096A097B098091080290910902A0E0E0
:1020E000B0E0712E84179507A607B70708F0702E89
:1020F0000E9417070E9435078333E1F10E946A07A7
:10210000892BC1F17720F9F235C0EE24E394F12C4C
:102110008E0107551F4F2DE04FE060E081E00E94E7
:1021200026040E94F5034B015C01F12C11E000E054
:1021300017C00E94F503AB01BC01481959096A098F
:102140007B098091080290910902A0E0B0E0F12E95
:1021500084179507A607B70708F0F02E0E94170707
:102160000E943507833331F00E946A07892B11F0F2
:10217000FF20F9F2C155DF4F28813981CF5AD04075
:102180000FB6F8943EBF0FBE2DBF49C00E9417077F
:10219000C455DF4F9881CC5AD040C555DF4F3881A8
:1021A000CB5AD040930FCF54DF4FE881C15BD04072
:1021B0009E0F9A0DF7015DCA0E941707C455DF4FA5
:1021C0009881CC5AD040C555DF4FF881CB5AD040CA
:1021D0009F0FCF54DF4F2881C15BD040920F9A0DE3
:1021E00020E04DCA981709F45BCFEE24E394F12C5C
:1021F0008E0107551F4F2BE04FE060E081E00E9409
:1022000026044ECFEE24E394F12C8E0107551F4F88
:102210002BE04FE060E081E00E9426044DCF0FB636
:10222000F894DEBE0FBECDBECD54DF4F0FB6F8948E
:10223000DEBF0FBECDBFDF91CF911F910F91FF90F9
:10224000EF90DF90CF90BF90AF909F908F907F9056
:102250006F905F904F903F902F900895EAE6F0E0E6
:1022600080818A6080838DB380638DBB789408956C
:102270001F920F920FB60F9211248F9381E08093DB
:10228000A9148F910F900FBE0F901F9018951F9259
:102290000F920FB60F9211248F9381E08093AA14AE
:1022A0008F910F900FBE0F901F901895F8940E9479
:1022B000E9030E94E3036B9A739A569A5E98579AC1
:1022C0005F9880E0C3D88FE790E00E9457058FE7C2
:1022D00090E00E94300683E090E00E94F6060E94A3
:1022E000A8030E949E0360E080E00E945E0389E5EF
:1022F00091E00E94C3030E94F5036B017C0110E092
:10230000C1E000E017C00E9417070E94F503AB016F
:10231000BC014C195D096E097F09809108029091FA
:102320000902A0E0B0E01C2F84179507A607B707A5
:1023300008F0102F0E946A07892B11F0112319F35E
:10234000E4E4F1E0A1EBB4E186EC94E124912D9377
:102350003196A817B907D1F781DFA9D880912C143D
:1023600081110E94300880912B1481110E94200954
:102370000E94F5030091271410912814209129142C
:1023800030912A146B017C01C01AD10AE20AF30AC7
:1023900000910B0210910C0220910D0230910E025F
:1023A000C016D106E206F306C0F2609327147093BC
:1023B00028148093291490932A148BB180588BB9D8
:1023C000CCCFEE0FFF1F881F8BBF0790F691E02D3B
:0623D0001994F894FFCF00
:1023D60014000000FEC80001E80364F401000033A5
:1023E600672364333477AA33333333AA3300174170
:1023F6000043485259534C4552434344534349536F
:1024060043414E4E455277BBAA0045330017410063
:1024160043485259534C455243434453434953430B
:10242600414E4E45527733001741004348525953A7
:102436004C45524343445343495343414E4E455200
:1024460077BB000045239833001741004348525993
:10245600534C45524343445343495343414E4E45DF
:1024660052773366332200330017410043485259EE
:10247600534C45524343445343495343414E4E45BF
:08248600527788AABBCC330099
:00000001FF
