:100000008BC20000B6C20000B4C20000B2C2000041
:10001000B0C200000C941B0C0C942A0CAAC2000065
:10002000A8C20000A6C20000A4C20000A2C2000034
:10003000A0C20000C5C300009CC200009AC200001C
:1000400098C2000096C2000094C2000092C2000054
:1000500090C200008EC200008CC200008AC2000064
:1000600088C200005DC40000D0C4000082C200004D
:1000700080C200007EC200007CC200007AC2000084
:1000800078C2000076C2000074C2000072C2000094
:1000900058C5000093C500006CC200006AC2000091
:1000A00068C2000066C2000064C2000062C20000B4
:1000B00060C200005EC200005CC200005AC20000C4
:1000C00058C2000056C2000054C20000FEC5000025
:1000D00031C600004EC20000E8C600001FC7000085
:1000E00048C20000270958098F099909660ACA0AF7
:1000F000CA0ACA0ACA0ACA0AC10BC10BC10BC10B80
:10010000B20A43485259534C45524343445343491E
:100110005343414E4E4552000000000000000000D5
:1001200000000000000000000000000000000000CF
:1001300000000000000000000000000000000000BF
:1001400000000000000000000000000000000000AF
:10015000000000000000000000000000000000009F
:10016000000000000000000000000000000000008F
:10017000000000000000000000000000000000007F
:10018000000000000000000000000000000000006F
:10019000000000000000000000000000000000005F
:1001A000000000000000000000000000000000004F
:1001B000000000000000000000000000000000003F
:1001C000000000000000000000000000000000002F
:1001D000000000000000000000000000000000001F
:1001E000000000000000000000000000000000000F
:1001F00000000000000000000000000000000000FF
:1002000000000000000000000000000000000000EE
:1002100000000000000000000000000000000000DE
:100220000000000000000000000080C0E0E0F07866
:100230003C3C1EFF1E3C3C78F0E0E0C0800000002B
:1002400000000000000000000000000000000000AE
:100250000000FE02FAFABA1AFAFAFA02FAFA5A5A3E
:100260001AFAFA02FAFADA5A1AFAFA02FAFA1A7ABE
:100270001AFAFA02FAFA1A5A5AFAFA02FE02FAFAC2
:100280003A5A3AFAFA02FAFA1A5A3AFAFA02FAFA1E
:100290003ADADAFAFA02FE000000000000000080FC
:1002A000C0C0E0F078783C1E0F0F0703010100008A
:1002B00000C0FFFFFFC0000000010103070F0F1E79
:1002C0003C7878F0E0C0C080000000000000000032
:1002D0000000FF00EFEF6D6C6DEFEF00EFEF6C6D66
:1002E0006DEFEF00EFEF6D6D6CEFEF00EFEF6F6F05
:1002F0006CEFEF00EFEF6D6D6CEFEF00FF00EFEFD5
:100300006C6FECEFEF00EFEF6C6D6EEFEF00EFEF67
:100310006E6D6DEFEF00FF00000000000000031F96
:10032000FFFFFFC206040C0C1C1C3838787870F0F4
:10033000F0FFFFFFFFFFF0F070787838381C1C0CDE
:100340000C0406C2FFFFFF1F0300000000000000B6
:100350000000FF80BFBFB0B5B1BFBF80BFBFBFBF90
:10036000B0BFBF80BFBFB0B5B0BFBF80BFBFBCBD57
:10037000B0BFBF80BFBFB0B7B0BFBF80FF80BFBF3F
:10038000B0B7B8BFBF80BFBFB0B5B7BFBF80BFBF3A
:10039000B0BDBFBFBF80FF00000000000000000034
:1003A000010F7FFFFEE0000000000000C0E0F87ECB
:1003B0003F1F0F070F1F3F7EF8E0C0000000000046
:1003C00000E0FEFF7F0F01000000000000000000C1
:1003D0000000FE02FA0A4AEA0A0AFA02FA0AAAAA7D
:1003E000EA0AFA02FA0A2AAAEA0AFA02FA0AEA8ADD
:1003F000EA0AFA02FA0AEAAAAA0AFA02FE02FA0AC1
:10040000CAAACA0AFA02FA0AEAAACA0AFA02FA0A3C
:10041000CA2A2A0AFA02FE000000000000000000BA
:10042000000000033FFFFFF8E0B09C8F87818080D1
:1004300080808080808080808081878F9CB0E0F881
:10044000FFFF3F0700000000000000000000000068
:100450000000FF00EF28AAABAA28EF00EF28ABAA04
:10046000AA28EF00EF28AAAAAB28EF00EF28A8A837
:10047000AB28EF00EF28AAAAAB28EF00FF00EF2877
:10048000ABA82B28EF00EF28ABAAA928EF00EF2894
:10049000A9AAAA28EF00FF00000000000000000049
:1004A000000000000001030303030303030303032D
:1004B000030303030303030303030303030303030C
:1004C0000301000000000000000000000000000028
:1004D0000000FF80BFA0AFAAAEA0BF80BFA0A0A0B9
:1004E000AFA0BF80BFA0AFAAAFA0BF80BFA0A3A294
:1004F000AFA0BF80BFA0AFA8AFA0BF80FF80BFA04C
:10050000AFA8A7A0BF80BFA0AFAAA8A0BF80BFA070
:10051000AFA2A0A0BF80FF0011241FBECFEFD1E289
:10052000DEBFCDBF00E00CBF14BE0FB6F894A89597
:1005300080916000886180936000109260000FBE1F
:1005400012E0A0E0B2E0E6E5FBE100E00BBF02C094
:1005500007900D92A03BB107D9F726E1A0EBB2E0DE
:1005600001C01D92AB36B207E1F70E94390C0C9422
:10057000A90D46CDA0E8B0E01C92E1E8F0E01082C1
:10058000109285001092840080E284B980E48C93FC
:1005900087E090E0909389008093880089E08083D1
:1005A00008951092800010928100109285001092A0
:1005B00084001092890010928800089500000000C5
:1005C000000000000000000000000000000000002B
:1005D000000000000000000000000000000000001B
:1005E000000000000000000000000000000000000B
:1005F00000000000000000000000000000000000FB
:1006000008959FEF91B988B9109AD8DF1098D6CF86
:100610000895886BF6CF08951298119A089511984D
:10062000129A0895CF93C82F803428F4F5DF8C2FC9
:100630008064E7DF05C0F3DF80EC8C0F8064E1DFCE
:10064000CF9108958091A215803410F4E5CF0895DC
:10065000E6CF0895F7DF17B8139882B1816182B9A8
:10066000ADDF86B197B19FEF97B992B19E7E92B9F7
:100670000895F0DF829581700895CF93DF93D82F8E
:10068000C62F8093A2156093A315DCDF8D2FCADFE0
:100690008C2F869586958695BCDFDF91CF91089546
:1006A000CF93C82F6091A3158091A215E6DF8FEF3D
:1006B00087B9C8B982B1896082B980DF1098139870
:1006C0007DDF8091A2158F5F8093A215CF91089551
:1006D0001F93CF93DF93D82F10E0612F80E0CDDF01
:1006E000C0E08D2FDDDFCF5FC038D9F7185F103441
:1006F000A1F7DF91CF911F91089580E0E9CF089590
:100700008BDF8FE37EDF8BDF8FE37BCF089581B1BB
:100710008FEF81B997B187B915982FEF89EF90E0E6
:10072000215080409040E1F700C00000159A01C0C0
:1007300045DF9FDF8111FCCFE3DFDFDF60E080E09A
:100740009CCF0895FF920F931F93CF93DF93EC01FB
:10075000F12C6F2D80E091DF8E0100581F4FFE01BC
:1007600084919EDF2196C017D107C9F7F8E0FF0EEC
:10077000E80180E4F812EDCFDF91CF911F910F9146
:10078000FF9008951092B9008CE08093B80008950E
:1007900082E08093B00094E09093B1008093700069
:1007A0008AEF8093B30008952FB7F8946091B10257
:1007B0007091B2028091B3029091B4022FBF08955C
:1007C0001F920F920FB60F9211248F939F93AF93A6
:1007D000BF938091B1029091B202A091B302B09107
:1007E000B4020196A11DB11D8093B1029093B20293
:1007F000A093B302B093B402BF91AF919F918F9138
:100800000F900FBE0F901F9018958F929F92AF92EE
:10081000BF92CF92DF92EF92FF920F931F93CF93ED
:10082000DF93CDB7DEB7CDB6DEB6470196E0890ED1
:10083000911CADB7BEB7A819B9090FB6F894BEBFE1
:100840000FBEADBFEDB7FEB731965F0193E31196D2
:100850009C93F7013296D5011196FC93119792E083
:100860009E0D12969C93B0E16B9F400D1124E0E425
:100870008E9F400D1124D50113964C931397149617
:100880002C93E114F104A9F1A02FB12FF5013596B5
:10089000A7014B5F5F4F4A0D5B1D2D912193E4171C
:1008A000F507D9F7B5E0EB0EF11CE2E0EE16F10426
:1008B00060F0F501319695012E0D3F1D80E091917C
:1008C000890FE217F307D9F701C080E0F501EE0DBB
:1008D000FF1D80838114910481F08501A80CB91C4F
:1008E000D8018D918D0190E0B8D20A151B05C1F792
:1008F00004C0B5E0EB0EF11CDCCF80E00FB6F8943D
:10090000DEBE0FBECDBEDF91CF911F910F91FF9044
:10091000EF90DF90CF90BF90AF909F908F90089511
:100920001F920F920FB60F9211240BB60F922F93B6
:100930003F934F935F936F937F938F939F93AF9367
:10094000BF93EF93FF934091C0002091C60030E029
:1009500048718091B002882379F140641092B0020E
:100960008091CA159091CB15A091CC15B091CD1561
:100970000196A11DB11D8093CA159093CB15A0932C
:10098000CC15B093CD15809107145091061490E0CA
:100990008096851B91098F719927892B69F0E091C9
:1009A0000714EF71F0E0EE0FFF1FE65FFB4E808152
:1009B00091819062918380838091071490E00196E9
:1009C0008F7199276091061470E06817790751F0CC
:1009D00080930714342B880F991FFC01E65FFB4EB0
:1009E00031832083FF91EF91BF91AF919F918F91C0
:1009F0007F916F915F914F913F912F910F900BBE1F
:100A00000F900FBE0F901F9018951F920F920FB668
:100A10000F9211240BB60F928F939F93EF93FF9336
:100A20009091091480910814981779F08091081416
:100A300090E001968F71992780930814FC01E65B82
:100A4000FB4E80818093C60005C0E1ECF0E0808120
:100A50008F7D8083FF91EF919F918F910F900BBEBF
:100A60000F900FBE0F901F901895109209141092BE
:100A700008141092071410920614992324F422E00B
:100A80002093C0009F779093C5008093C40088E9AD
:100A90008093C10086E08093C2000895909107146E
:100AA00080910614981781F08091061490E00196C9
:100AB0008F71992780930614880F991FFC01E65FB8
:100AC000FB4E80819181089580E092E0089590919D
:100AD000071480910614981769F0E0910614F0E06D
:100AE0003196EF71FF27EE0FFF1FE65FFB4E80810F
:100AF0009181089580E092E008954091091450E0BA
:100B00004F5F5F4F4F7155272091081430E0241735
:100B10003507D1F3FA01E65BFB4E8083409309145D
:100B2000E1ECF0E080818062808308958091071479
:100B30002091061490E08096821B91098F7199276D
:100B400008951F920F920FB60F9211240BB60F92B9
:100B50002F933F934F935F936F938F939F93EF9355
:100B6000FF938091C8002091CE0030E0682F68711B
:100B70008091431390E001968F739927409142131F
:100B800050E04817590751F080934313362B880FD4
:100B9000991FFC01EA5BFC4E31832083FF91EF91AA
:100BA0009F918F916F915F914F913F912F910F90F6
:100BB0000BBE0F900FBE0F901F9018951F920F92B3
:100BC0000FB60F9211240BB60F928F939F93EF9352
:100BD000FF939091451380914413981779F0809179
:100BE000441390E001968F73992780934413FC017E
:100BF000EA53FC4E80818093CE0005C0E9ECF0E022
:100C000080818F7D8083FF91EF919F918F910F90D5
:100C10000BBE0F900FBE0F901F90189510924513AA
:100C2000109244131092431310924213992324F408
:100C300022E02093C8009F779093CD008093CC0052
:100C400088E98093C90086E08093CA000895909156
:100C5000431380914213981781F08091421390E0E2
:100C600001968F73992780934213880F991FFC0177
:100C7000EA5BFC4E80819181089580E092E00895C6
:100C80004091451350E04F5F5F4F4F7355272091C0
:100C9000441330E024173507D1F3FA01EA53FC4E30
:100CA000808340934513E9ECF0E08081806280838B
:100CB0000895809143132091421390E0805C9F4FF0
:100CC000821B91098F73992708951F920F920FB677
:100CD0000F9211240BB60F922F933F934F938F9344
:100CE0009F93EF93FF938091D0004091D600809125
:100CF0003C0390913D030196977020913A03309107
:100D00003B038217930741F090933D0380933C038C
:100D1000FC01EE5BFC4F4083FF91EF919F918F911F
:100D20004F913F912F910F900BBE0F900FBE0F90E0
:100D30001F9018951F920F920FB60F9211240BB6A9
:100D40000F922F933F938F939F93EF93FF93209155
:100D500040033091410380913E0390913F03281757
:100D6000390789F080913E0390913F030196977077
:100D700090933F0380933E03FC01EE5BF44F808130
:100D80008093D60005C0E1EDF0E080818F7D808307
:100D9000FF91EF919F918F913F912F910F900BBEFB
:100DA0000F900FBE0F901F90189510924103109254
:100DB000400310923F0310923E0310923D031092A5
:100DC0003C0310923B0310923A03992324F422E04F
:100DD0002093D0009F779093D5008093D40088E92A
:100DE0008093D10086E08093D200089520913C0347
:100DF00030913D0380913A0390913B0328173907C6
:100E000081F080913A0390913B0301969770909303
:100E10003B0380933A03FC01EE5BFC4F808190E042
:100E2000089580E092E0089520913C0330913D03C5
:100E300080913A0390913B032817390759F0E091CC
:100E40003A03F0913B033196F770EE5BFC4F8081E3
:100E500090E0089580E092E0089540914003509121
:100E600041034F5F5F4F577020913E0330913F0326
:100E700042175307C9F3FA01EE5BF44F8083509396
:100E8000410340934003E1EDF0E080818062808384
:100E9000089580913C0390913D0320913A03309155
:100EA0003B03821B930B977008951F920F920FB60E
:100EB0000F9211240BB60F922F933F934F935F9392
:100EC0008F939F93EF93FF932091300130913601E0
:100ED00028718091B70290E001968F739927409115
:100EE000B60250E04817590739F08093B702FC0169
:100EF000E654FD4F308301C024E02093B502FF91FA
:100F0000EF919F918F915F914F913F912F910F9012
:100F10000BBE0F900FBE0F901F9018951F920F924F
:100F20000FB60F9211240BB60F928F939F93EF93EE
:100F3000FF939091B9028091B802981779F080914F
:100F4000B80290E001968F7399278093B802FC0154
:100F5000E650FD4F80818093360105C0E1E3F1E06A
:100F600080818F7D8083FF91EF919F918F910F9072
:100F70000BBE0F900FBE0F901F90189598E088E160
:100F80000FB6F894A895809360000FBE9093600010
:100F9000FFCFCF93DF931F921F92CDB7DEB7809123
:100FA000671690916816009731F4CE018A569641E3
:100FB0009A83898308C09E012F5F3F4FA901481B78
:100FC000590B5A83498389819A810F900F90DF9141
:100FD000CF910895549A559A813041F018F082309B
:100FE00049F00CC05C985D9881E008955C9A5D982A
:100FF00081E008955C985D9A81E008955C9A5D981F
:1010000080E008952F923F924F925F926F927F926D
:101010008F929F92AF92BF92CF92DF92EF92FF9208
:101020000F931F93CF93DF93CDB7DEB7C15BD10989
:101030000FB6F894DEBF0FBECDBFCDB6DEB629DF4A
:10104000059708F4CFC3B0DB4B015C01712CFF2482
:10105000F394E12C15C0CADEA7DBAB01BC01481933
:1010600059096A097B098091000290910102A0E070
:10107000B0E07F2C84179507A607B70708F07E2CF1
:10108000D3DE833311F0772031F303DF892B09F4AA
:10109000A9C3ACDEC355DF4F8883CD5AD040A6DE4E
:1010A000582EA4DE482E152D00E01801282A8101B3
:1010B0000F5F1F4F0E3F27E0120750F0E12CF12C7D
:1010C0000FE010E022E04FE060E081E09EDB8AC3A9
:1010D000A80143505109C555DF4F59834883CB5A66
:1010E000D0408DB79EB7C255DF4F99838883CE5AC3
:1010F000D040EDB7FEB7E41BF50B0FB6F894FEBF7A
:101100000FBEEDBF2DB73EB72F5F3F4FC755DF4F27
:1011100039832883C95AD040C055DF4F398328838B
:10112000C05BD04041DB4B015C01712CFF24F39488
:10113000E12C13C039DBAB01BC01481959096A091C
:101140007B098091020290E0A0E0B0E07F2C841740
:101150009507A607B70708F07E2C9BDE801791073E
:1011600018F4772039F3E1C27110DFC23FDE682E38
:101170003DDE5C01C555DF4F48815981CB5AD040D7
:10118000452B09F411C3C755DF4FE880F980C95AD0
:10119000D0408101025011090E0D1F1D470126DEAE
:1011A000F40181934F01E017F107C9F7F6C22191CD
:1011B000920F0E171F07D9F721E0C355DF4FF881B3
:1011C000CD5AD040F33309F0F6C2981301C3962DDF
:1011D00092959F709370862D8F70362D329536952F
:1011E0003695337009F06AC2913031F138F092309F
:1011F00009F4DAC1933009F417C256C2222391F0E0
:10120000C555DF4FE880F980CB5AD040C755DF4F36
:1012100008811981C95AD0402A2D462D60E080E00E
:10122000F4DAAFC2E12CF12C00E010E02A2D462DBB
:1012300060E080E0EADAA5C290E08F30910508F026
:10124000A9C1FC018827EE58FF4F8F4F7AC4A9D956
:10125000109283141092821480E0BCDE01C01EDC68
:1012600065DC892BE1F701C0F2DC23DD892BE1F796
:1012700010927414109273141092721410927114CC
:101280001092701410926F14E12CF12C00E010E019
:1012900020E040E060E081E0B8DA2FEF33EC49E095
:1012A000215030404040E1F700C000003DD966DEEB
:1012B00078D9109283141092821480E08BDE01C0E2
:1012C000EDDB34DC892BE1F701C0C1DCF2DC892BDA
:1012D000E1F7109274141092731410927214109219
:1012E00071141092701410926F14E2E0F1E0DE01BC
:1012F0001196CE01469624912D933196A817B907E1
:10130000D1F70F2EF5E1EF2EF12CF02D8E010F5FAE
:101310001F4F20E041E060E081E077DA32C2E12C4B
:10132000F12C00E010E020E042E060E081E06DDAC6
:1013300028C2BB2454E0A516B10409F476C094F485
:1013400091E0A916B10429F11CF4AB28C1F0B4C096
:10135000F2E0AF16B104B1F123E0A216B10409F432
:101360004AC0AAC036E0A316B10409F492C00CF436
:101370006DC050E2A516B1040CF403C29DC0E12C6F
:10138000F12C00E010E028E04FE060E081E03DDA81
:10139000F8C1E12CF12C00E010E020E04FE060E02B
:1013A00081E033DA81E08093751482E390E0A0E07D
:1013B000B0E08093030290930402A0930502B093DF
:1013C0000602DFC1E12CF12C00E010E020E04FE04C
:1013D00060E081E01ADA1092751484EF91E0A0E0E9
:1013E000B0E08093030290930402A0930502B093AF
:1013F0000602C7C153DB9ADB892BE1F71092741404
:10140000109273141092721481E0809383141982E5
:10141000B1D8EE24E394F12C8E010F5F1F4F23E02F
:1014200043E060E081E0F1D9ACC1109283141982ED
:10143000B8D8EE24E394F12C8E010F5F1F4F24E007
:1014400043E060E081E0E1D99CC101DC32DC892B22
:10145000E1F7109271141092701410926F1481E0E1
:1014600080938214C755DF4FE881F981C95AD04073
:101470008081B0DDEE24E394F12CC755DF4F088165
:101480001981C95AD04025E043E060E081E0BDD930
:1014900078C11092821480E09DDDEE24E394F12C5B
:1014A000C755DF4F08811981C95AD04026E043E073
:1014B00060E081E0AAD965C1E12CF12C00E010E0E8
:1014C00027E04FE060E081E0A0D95BC1BB24F7E0FA
:1014D000AF16B10444F421E0A216B1040CF051C1DE
:1014E000AB2851F035C037E0A316B10479F048E0DD
:1014F000A416B104D9F02CC0E12CF12C00E010E0CE
:1015000028E04FE060E081E080D93BC142DD998373
:101510008A836894EE24E1F8F12C8E010F5F1F4F4F
:1015200027E045E060E081E070D92BC13DD9998387
:101530008A837B836C836894EE24E2F8F12C8E011D
:101540000F5F1F4F28E045E060E081E05ED919C1E0
:10155000E12CF12C00E010E027E04FE060E081E0BA
:1015600054D90FC188EAE7E0F2E0DE01119601905C
:101570000D928A95E1F78E010F5F1F4F7E0158EAA9
:10158000E50EF11CF80181918F0167DC0E151F0536
:10159000C9F7F7C0E12CF12C00E010E026E04FE0A5
:1015A00060E081E032D9EDC0863029F098F18930D1
:1015B00008F4E7C02FC0C555DF4F28813981CB5AC9
:1015C000D040232BE1F080E0282F30E0F901ED5EE0
:1015D000F94EC055DF4FA881B981C05BD040A20F42
:1015E000B31F9C9190838F5F282F30E0C555DF4F4C
:1015F00048815981CB5AD0402417350728F3C55567
:10160000DF4F5881CB5AD0405093721481E08093C1
:101610007314B7C0E12CF12C00E010E026E04FE09D
:1016200060E081E0F2D8ADC0863029F098F18930D1
:1016300008F4A7C02FC0C555DF4F88819981CB5AC8
:10164000D040892BE1F080E0282F30E0F901E2530F
:10165000FA4EC055DF4FA881B981C05BD040A20FC0
:10166000B31F9C9190838F5F282F30E0C555DF4FCB
:10167000E881F981CB5AD0402E173F0728F3C55592
:10168000DF4FF881CB5AD040F0936F1481E0809304
:10169000701477C0E12CF12C00E010E026E04FE060
:1016A00060E081E0B2D86DC0E12CF12C00E010E0E8
:1016B00025E04FE060E081E0A8D863C0E12CF12C88
:1016C00000E010E02EE04FE060E081E09ED859C0DD
:1016D000E12CF12C00E010E021E04FE060E081E03F
:1016E00094D862D84B015C0111E000E015C05CD8D1
:1016F000AB01BC01481959096A097B0980910002B4
:1017000090910102A0E0B0E0712E84179507A60722
:10171000B70708F0702E6ADB87DB833391F1B9DB02
:10172000892B79F1772019F32CC0E12CF12C00E002
:1017300010E02DE04FE060E081E067D835D84B0144
:101740005C01F12C11E015C02FD8AB01BC01481988
:1017500059096A097B098091000290910102A0E079
:10176000B0E0F12E84179507A607B70708F0F02E12
:101770003DDB5ADB833329F08CDB892B11F0FF2012
:1017800019F3C255DF4F28813981CE5AD0400FB6A8
:10179000F8943EBF0FBE2DBF25C028DB942D950DBC
:1017A000960D9A0DF70103CD21DB942D950D960D25
:1017B0009A0D20E002CD981709F48ACFE12CF12C84
:1017C00000E010E02BE04FE060E081E01ED880CF29
:1017D000E12CF12C00E010E02BE04FE060E081E034
:1017E00014D87FCF0FB6F894DEBE0FBECDBECF5457
:1017F000DF4F0FB6F894DEBF0FBECDBFDF91CF91A4
:101800001F910F91FF90EF90DF90CF90BF90AF901E
:101810009F908F907F906F905F904F903F902F9010
:101820000895EAE6F0E080818A6080838DB380636A
:101830008DBB789408951F920F920FB60F921124CA
:101840008F9381E08093B0028F910F900FBE0F9025
:101850001F9018951F920F920FB60F9211248F931D
:1018600081E080935F158F910F900FBE0F901F90B6
:101870001895F8940E94C8030E94C2036B9A739A49
:10188000569A5E98579A5F9880E0A4DB8FE790E0C5
:10189000ECD88FE790E0C2D983E090E086DA0E942E
:1018A00087030E947D0360E080E00E943D0387E1A2
:1018B00091E00E94A2030E94D4032B013C01C0E0EE
:1018C00011E0D0E016C092DA0E94D403AB01BC0153
:1018D0004419550966097709809100029091010227
:1018E000A0E0B0E0C12F84179507A607B70708F05E
:1018F000CD2FCFDA892B11F0CC2329F3E2E0F1E0F0
:10190000AEEFB5E183E196E124912D933196A817CE
:10191000B907D1F786DFAA24A394BA2C73DB809190
:101920008314882309F44CC001D9892B49F1CFD8FD
:10193000C92ED12C80E4C816D104B1F4E0907414FF
:10194000F12C07E216E120E049E060E082E00E942D
:10195000050410927414A2D88093271680917414F1
:101960008F5F809374140CC0C0917414D0E096D82B
:10197000C95DD94E8883809174148F5F80937414ED
:10198000809173148823C1F08091B0028823A1F064
:1019900080917214882361F0C0E0EC2FF0E0ED5EDE
:1019A000F94E8081AAD8CF5F20917214C217A8F394
:1019B000109272141092731480917C1490917D1483
:1019C00080918214882309F46FC073D9892B01F1A7
:1019D00070D9082F882381F010E0C0917114D0E0F5
:1019E00036D9CC55DA4E8883909171149F5F9093CD
:1019F00071141F5F0113F1CF0E94D40360936B1425
:101A000070936C1480936D1490936E14B0926A145A
:101A10000E94D40300916B1410916C1420916D14EA
:101A200030916E14DC01CB01801B910BA20BB30B28
:101A3000C397A105B105B0F0E0907114EE2091F0CC
:101A4000F12C04EA15E120E049E060E083E00E9427
:101A500005041092711410926A148091701481110F
:101A600009C01EC0809170148823D1F080916A143F
:101A7000811116C080916F14882361F0C0E0EC2FB3
:101A8000F0E0E253FA4E8081FBD8CF5F80916F1473
:101A9000C817A8F310926F1410927014B0926A14C1
:101AA00080917E1490917F1480918114882341F05D
:101AB00080917A1490917B14019711F41092811403
:101AC000809180148111109280140E94D40300919F
:101AD00076141091771420917814309179142B0199
:101AE0003C01401A510A620A730A009103021091E4
:101AF000040220910502309106024016510662064A
:101B0000730608F40BCF6093761470937714809368
:101B10007814909379148BB180588BB98091751497
:101B2000882309F4FBCE0F2EF5E1EF2EF12CF02DDA
:101B30000EEF15E120E04A2D60E08A2D0E94050499
:101B4000EDCEEE0FFF1F881F8BBF0790F691E02DA3
:061B50001994F894FFCF88
:101B5600E80364F401000033672364333477AA335F
:101B6600333333AA330017410043485259534C4587
:101B7600524343445343495343414E4E455277BB28
:101B8600AA0045330017410043485259534C455269
:101B96004343445343495343414E4E4552773300E2
:101BA60017410043485259534C455243434453430B
:101BB600495343414E4E455277BB00004523983367
:101BC6000017410043485259534C4552434344532E
:101BD60043495343414E4E455277336633220033D1
:101BE6000017410043485259534C4552434344530E
:101BF60043495343414E4E45527788AABBCC3300E6
:00000001FF
