:10000000B5C20000E0C20000DEC20000DCC2000099
:10001000DAC200000C94C2100C94D110D4C20000BB
:10002000D2C20000D0C20000CEC20000CCC200008C
:10003000CAC20000EFC30000C6C20000C4C2000074
:10004000C2C20000C0C20000BEC20000BCC20000AC
:10005000BAC20000B8C20000B6C20000B4C20000BC
:10006000B2C2000088C40000FBC40000ACC20000A3
:10007000AAC20000A8C20000A6C20000A4C20000DC
:10008000A2C20000A0C200009EC200009CC20000EC
:1000900083C50000BEC5000096C2000094C20000E7
:1000A00092C2000090C200008EC200008CC200000C
:1000B0008AC2000088C2000086C2000084C200001C
:1000C00082C2000080C200007EC2000028C600007C
:1000D0005BC6000078C2000012C7000049C70000DC
:1000E00072C200003E0B570B650B720B850DE00EC4
:1000F000E00EE00EE00EE00E710E7F0E8D0E9B0EF8
:10010000A90ED20E7D0B8B0BA70BC20BD00BE10BF4
:10011000F90B0C0C190C260C340C420C500C5E0C18
:100120006C0C7A0C880C960CA40CB30CC80CDC0C70
:10013000EA0CF80C060D140D220D300D3E0D4C0D81
:100140005A0D680D900D9F0DAD0DBB0DC90DD70D4E
:10015000E50D3D0E4E0E43485259534C4552434314
:10016000445343495343414E4E4552000000000062
:10017000000000000000000000000000000000007F
:10018000000000000000000000000000000000006F
:10019000000000000000000000000000000000005F
:1001A000008080C0E0F0F0F8FCFEFE0000FEFCFCE9
:1001B000F8F0E0E0C0800000000000000000000057
:1001C000000000000000000000000000000000002F
:1001D000000000000000000000000000000000001F
:1001E000000000000000000000000000000000000F
:1001F00000000000000000000000000000000000FF
:1002000000000000000000000000000000000000EE
:100210000000000000000080C0E0E0F0F8FCFCFE00
:10022000FFFFFFFFFFFFFFFFFFFF1F0000FFFFFFBC
:10023000FFFFFFFFFFFFFFFFFEFCF8F8F0E0C0C08C
:10024000800000000000000000000000000000002E
:10025000000000000000000000000000000000009E
:10026000000000000000000000000000000000008E
:10027000000000000000000000000000000000007E
:10028000000000000000000000000000000000006E
:10029000000010F4E6E7E7CFCF8F9F1F1F1F3F3FFF
:1002A0003F3F7F7F7F7FFFFFFFFF00000001FFFFD9
:1002B000FFFF7F7F7F7F3F3F3F3F1F1F1F9F8FCFEE
:1002C000CFCFE6E674000000000000000000000050
:1002D000000000000000000000000000000000001E
:1002E000000000000000000000000000000000000E
:1002F00000000000000000000000000000000000FE
:1003000000000000000000000000000000000000ED
:1003100000000000073FFFFFFFFFFFFFFFFFFEFEA3
:10032000FCFCFCF8F8F0F0300000000000000000D9
:1003300070F0F0F8F8FCFCFCFEFEFFFFFFFFFFFF93
:10034000FFFF3F0700000000000000000000000069
:10035000000000000000000000000000000000009D
:10036000000000000000000000000000000000008D
:10037000000000000000000000000000000000007D
:10038000000000000000000000000000000000006D
:10039000000000000000011FFFFFFFFFFFFFFFFF45
:1003A000FFFF7F1F0783C0E0F0FCFEFFFFFCF8F0BB
:1003B000E0C0030F1F7FFFFFFFFFFFFFFFFFFF7F77
:1003C0000F0100000000000000000000000000001D
:1003D000000000000000000000000000000000001D
:1003E000000000000000000000000000000000000D
:1003F00000000000000000000000000000000000FD
:1004000000000000000000000000000000000000EC
:10041000000000000000000000073FFFFF7F1F8773
:10042000E3F0F8FCFEFFFFFFFFFFFFFFFFFFFFFF12
:10043000FFFFFFFEFCF8E1C38F1F7FFFFF1F0300DC
:1004400000000000000000000000000000000000AC
:10045000000000000000000000000000000000009C
:10046000000000000000000000000000000000008C
:1004700000008080C0C0C0C0C0C0C0C0C0800080BC
:10048000C0C0C00000000000000080C0C0C000006C
:10049000C0C0C0C0C0C0C0C0C0C080818002C3C3D3
:1004A000C3C383030303030383C3C3038383C3C39C
:1004B000C3C3C3C3C3C3C3C303030081C0C0C0005D
:1004C00000000000000000000080C0C0C0C0C0C02C
:1004D000C0C0C0C0C0C08000C0C0C0C0C0C0C0C01C
:1004E000C0C080808000000000000000000000000C
:1004F0000E1F3F3F31306060606060202020003F71
:100500003F3F3F060404040404043F3F3F3F000014
:100510003F3F3F3F00040C1C1C3C373723230000A7
:100520000103073F3E3C3E030101000033232767E0
:10053000666666662E3C3C3C1800003F3F3F3F200D
:100540002020202020202020003F3F3F3F26242441
:1005500024242424242420003F3F3F3F0000040C97
:100560001C3C3F37232300000000000011241FBE65
:10057000CFEFD1E2DEBFCDBF00E00CBF14BE0FB69F
:10058000F894A89580916000886180936000109233
:1005900060000FBE12E0A0E0B2E0E0E3F3E200E0B2
:1005A0000BBF02C007900D92A43BB107D9F725E11C
:1005B000A4EBB2E001C01D92A032B207E1F70E94A5
:1005C000E0100C9496111CCDA0E8B0E01C92E1E87C
:1005D000F0E01082109285001092840080E284B9CD
:1005E00080E48C9387E090E090938900809388006A
:1005F00089E080830895109280001092810010920B
:10060000850010928400109289001092880008954D
:1006100000000000000000000000000000000000DA
:1006200000000000000000000000000000000000CA
:1006300000000000000000000000000000000000BA
:1006400000000000000000000000000000000000AA
:100650000000000008959FEF91B988B9109AD8DF83
:100660001098D6CF0895886BF6CF08951298119AF6
:1006700008951198129A0895CF93C82F803428F4C2
:10068000F5DF8C2F8064E7DF05C0F3DF80EC8C0F93
:100690008064E1DFCF91089580912F14803410F4AD
:1006A000E5CF0895E6CF0895F7DF17B8139882B124
:1006B000816182B9ADDF86B197B19FEF97B992B1F1
:1006C0009E7E92B90895F0DF829581700895CF9350
:1006D000DF93D82FC62F80932F1460933014DCDF64
:1006E0008D2FCADF8C2F869586958695BCDFDF918E
:1006F000CF910895CF93C82F6091301480912F141B
:10070000E6DF8FEF87B9C8B982B1896082B980DF2F
:10071000109813987DDF80912F148F5F80932F1492
:10072000CF9108951F93CF93DF93D82F10E0612FBF
:1007300080E0CDDFC0E08D2FDDDFCF5FC038D9F79F
:10074000185F1034A1F7DF91CF911F91089580E0D9
:10075000E9CF08958BDF8FE37EDF8BDF8FE37BCFE5
:10076000089581B18FEF81B997B187B915982FEFAF
:1007700089EF90E0215080409040E1F700C00000F8
:10078000159A01C045DF9FDF8111FCCFE3DFDFDF7A
:1007900060E080E09CCF0895FF920F931F93CF936A
:1007A000DF93EC01F12C6F2D80E091DF8E0100587A
:1007B0001F4FFE0184919EDF2196C017D107C9F714
:1007C000F8E0FF0EE80180E4F812EDCFDF91CF9161
:1007D0001F910F91FF9008951092B9008CE08093C3
:1007E000B800089582E08093B00094E09093B10047
:1007F000809370008AEF8093B30008952FB7F89428
:100800006091B4027091B5028091B6029091B702E6
:100810002FBF08951F920F920FB60F9211248F933E
:100820009F93AF93BF938091B4029091B502A09132
:10083000B602B091B7020196A11DB11D8093B4021A
:100840009093B502A093B602B093B702BF91AF9157
:100850009F918F910F900FBE0F901F9018958F92C0
:100860009F92AF92BF92CF92DF92EF92FF920F933F
:100870001F93CF93DF93CDB7DEB7CDB6DEB647017A
:1008800036E0830E911CADB7BEB7A819B9090FB6F3
:10089000F894BEBF0FBEADBFEDB7FEB731965F0196
:1008A00093E311969C93F7013296D5011196FC9330
:1008B000119792E09E0D12969C93B0E16B9FB00150
:1008C0001124642BE0E48E9FC0011124682BD50114
:1008D00013966C93139714962C93E114F104A9F1D9
:1008E000A02FB12FF5013596A7014B5F5F4F4A0D41
:1008F0005B1D2D912193E417F507D9F7B5E0EB0EB9
:10090000F11CE2E0EE16F10460F0F501319695017C
:100910002E0D3F1D80E09191890FE217F307D9F763
:1009200001C080E0F501EE0DFF1D8083811491046C
:1009300081F08501A80CB91CD8018D918D0190E042
:10094000B6D20A151B05C1F704C0B5E0EB0EF11CC9
:10095000DCCF0FB6F894DEBE0FBECDBEDF91CF91D7
:100960001F910F91FF90EF90DF90CF90BF90AF90CD
:100970009F908F9008951F920F920FB60F9211249F
:100980000BB60F922F933F934F935F936F937F9389
:100990008F939F93AF93BF93EF93FF934091C000CA
:1009A0002091C60030E048718091AB14882379F122
:1009B00040641092AB148091771490917814A091B8
:1009C0007914B0917A140196A11DB11D809377140A
:1009D00090937814A0937914B0937A148091AA1309
:1009E0005091A91390E08096851B91098F719927EA
:1009F000892B69F0E091AA13EF71F0E0EE0FFF1F71
:100A0000E355FC4E80819181906291838083809137
:100A1000AA1390E001968F7199276091A91370E055
:100A20006817790751F08093AA13342B880F991F08
:100A3000FC01E355FC4E31832083FF91EF91BF9180
:100A4000AF919F918F917F916F915F914F913F9166
:100A50002F910F900BBE0F900FBE0F901F90189507
:100A60001F920F920FB60F9211240BB60F928F9315
:100A70009F93EF93FF939091AC138091AB139817D2
:100A800079F08091AB1390E001968F719927809354
:100A9000AB13FC01E351FC4E80818093C60005C07E
:100AA000E1ECF0E080818F7D8083FF91EF919F9159
:100AB0008F910F900BBE0F900FBE0F901F90189547
:100AC0001092AC131092AB131092AA131092A913A8
:100AD000992324F422E02093C0009F779093C500CF
:100AE0008093C40088E98093C10086E08093C200AF
:100AF00008959091AA138091A913981781F080917D
:100B0000A91390E001968F7199278093A913880FFC
:100B1000991FFC01E355FC4E80819181089580E08E
:100B200092E008959091AA138091A913981769F003
:100B3000E091A913F0E03196EF71FF27EE0FFF1F50
:100B4000E355FC4E80819181089580E092E0089504
:100B50004091AC1350E04F5F5F4F4F71552720918C
:100B6000AB1330E024173507D1F3FA01E351FC4E03
:100B700080834093AC13E1ECF0E08081806280835D
:100B800008958091AA132091A91390E08096821B6A
:100B900091098F71992708951F920F920FB60F92A6
:100BA00011240BB60F922F933F934F935F936F9344
:100BB0008F939F93EF93FF938091C8002091CE0075
:100BC00030E0682F68718091461390E001968F7134
:100BD00099274091451350E04817590751F08093E9
:100BE0004613362B880F991FFC01E75BFC4E3183BF
:100BF0002083FF91EF919F918F916F915F914F9122
:100C00003F912F910F900BBE0F900FBE0F901F9032
:100C100018951F920F920FB60F9211240BB60F92D8
:100C20008F939F93EF93FF93909148138091471375
:100C3000981779F08091471390E001968F7199276A
:100C400080934713FC01E757FC4E80818093CE00D0
:100C500005C0E9ECF0E080818F7D8083FF91EF910A
:100C60009F918F910F900BBE0F900FBE0F901F9012
:100C70001895109248131092471310924613109231
:100C80004513992324F422E02093C8009F77909382
:100C9000CD008093CC0088E98093C90086E08093E2
:100CA000CA0008959091461380914513981781F0DA
:100CB0008091451390E001968F7199278093451399
:100CC000880F991FFC01E75BFC4E8081918108959C
:100CD00080E092E008954091481350E04F5F5F4FED
:100CE0004F7155272091471330E024173507D1F372
:100CF000FA01E757FC4E808340934813E9ECF0E09B
:100D000080818062808308958091461320914513ED
:100D100090E08096821B91098F71992708951F9208
:100D20000F920FB60F9211240BB60F922F933F9391
:100D30004F938F939F93EF93FF938091D0004091B7
:100D4000D60080913F0390914003019697702091C7
:100D50003D0330913E038217930741F09093400387
:100D600080933F03FC01EB5BFC4F4083FF91EF91CD
:100D70009F918F914F913F912F910F900BBE0F90AC
:100D80000FBE0F901F9018951F920F920FB60F92E3
:100D900011240BB60F922F933F938F939F93EF9352
:100DA000FF9320914303309144038091410390913C
:100DB00042032817390789F080914103909142033B
:100DC000019697709093420380934103FC01EB5B83
:100DD000F44F80818093D60005C0E1EDF0E0808182
:100DE0008F7D8083FF91EF919F918F913F912F9104
:100DF0000F900BBE0F900FBE0F901F901895109282
:100E00004403109243031092420310924103109244
:100E1000400310923F0310923E0310923D0399232A
:100E200024F422E02093D0009F779093D500809304
:100E3000D40088E98093D10086E08093D2000895A1
:100E400020913F033091400380913D0390913E03F8
:100E50002817390781F080913D0390913E03019658
:100E6000977090933E0380933D03FC01EB5BFC4F36
:100E7000808190E0089580E092E0089520913F0302
:100E80003091400380913D0390913E03281739072C
:100E900059F0E0913D03F0913E033196F770EB5B22
:100EA000FC4F808190E0089580E092E008954091A9
:100EB0004303509144034F5F5F4F577020914103AC
:100EC0003091420342175307C9F3FA01EB5BF44F29
:100ED00080835093440340934303E1EDF0E080812D
:100EE00080628083089580913F0390914003209118
:100EF0003D0330913E03821B930B977008951F9220
:100F00000F920FB60F9211240BB60F922F933F93AF
:100F10004F935F938F939F93EF93FF9320913001B3
:100F20003091360128718091BA0290E001968F735A
:100F300099274091B90250E04817590739F080933A
:100F4000BA02FC01E354FD4F308301C024E020933A
:100F5000B802FF91EF919F918F915F914F913F91D7
:100F60002F910F900BBE0F900FBE0F901F901895F2
:100F70001F920F920FB60F9211240BB60F928F9300
:100F80009F93EF93FF939091BC028091BB029817BF
:100F900079F08091BB0290E001968F73992780933E
:100FA000BB02FC01E350FD4F80818093360105C0F8
:100FB000E1E3F1E080818F7D8083FF91EF919F914C
:100FC0008F910F900BBE0F900FBE0F901F90189532
:100FD00098E088E10FB6F894A895809360000FBE62
:100FE00090936000FFCFCF93DF931F921F92CDB7F6
:100FF000DEB780911C1590911D15009731F4CE013C
:101000008F5195419A83898308C09E012F5F3F4F7E
:10101000A901481B590B5A83498389819A810F90F2
:101020000F90DF91CF91089501C063DDAADD892B78
:10103000E1F710921F1410921D1410921E148FE7E6
:1010400090E03EDDC1DA81E080932E14089501C066
:1010500029DE5ADE892BE1F710921C1410921B1422
:1010600010921A148FE790E004DE81E080932D1433
:101070000895EF92FF920F931F93CF93DF9381DD3B
:10108000892B09F483C04EDD292F30E0203431054F
:1010900009F070C080911F14882309F46BC08091FF
:1010A0001314882309F451C08091DC14823F09F5A0
:1010B0008091DD1490910D1489131BC0909114142C
:1010C000E92FF0E0EF5CFB4E80839F5F9093141458
:1010D00090910002891739F08F5F80930D1481E0A1
:1010E0008093030232C01092030281E080931214B5
:1010F0002CC084DB00910E1410910F142091101459
:1011000030911114AB01BC01401B510B620B730BEE
:101110008091010290910202A0E0B0E0841795074F
:10112000A607B70790F480910D14909100028917DB
:1011300039F08F5F80930D1481E08093030205C026
:101140001092030281E080931214E0901F14F12C9E
:101150000CED14E120E049E060E082E080DB1092D9
:101160001F14C7DC8093DC1480911F148F5F809361
:101170001F140CC0C0911F14D0E0BBDCC452DB4E66
:10118000888380911F148F5F80931F1480911E1499
:101190008823C1F08091AB148823A1F080911D14A5
:1011A000882361F0C0E0EC2FF0E0E853FB4E808133
:1011B000CFDCCF5F80911D14C817A8F310921D14C7
:1011C00010921E1480911314882339F18091030228
:1011D000882319F18091AB148823F9F0109203024F
:1011E000EDEAF4E182EB808380910D148183128219
:1011F000138214828E548583EF0103EB14E18991ED
:10120000A7DCC017D107D9F7F9DA60930E147093F1
:101210000F1480931014909311148091121488234A
:1012200089F010921214109213146894EE24E5F8C9
:10123000F12C01E314E126E045E060E081E00FDB02
:10124000109214148091271490912814DF91CF915B
:101250001F910F91FF90EF9008957F928F929F9230
:10126000AF92BF92CF92DF92EF92FF920F931F93B4
:10127000CF93DF9388248394912CA92CD82DB92C5B
:1012800043DD892B01F140DDF82E882389F0C92D3B
:1012900000911C1410E006DDF801EF5AFB4E80832C
:1012A00090911C149F5F90931C14CF5FFC12F0CFA1
:1012B000A5DA609316147093171480931814909302
:1012C0001914809215149ADA0091161410911714BB
:1012D0002091181430911914DC01CB01801B910B63
:1012E000A20BB30BC397A105B105A8F0E0901C14A5
:1012F000EE2051F0F12C01E514E1292D49E0692D92
:1013000083E0ADDA90921C149092151480911B1416
:1013100081110AC044C080911B14882309F43FC086
:101320008091151481113BC080911A14882339F1E2
:10133000792CEADC8C01E72DF0E0E558FB4E80814A
:10134000CADC5CDA6B017C01CA2D11270DC056DAAC
:10135000DC01CB018C199D09AE09BF09CD2FC397C4
:10136000A105B10508F4CB2DCFDC0817190710F043
:10137000CC2369F3739480911A147816D0F23EDA74
:101380006093161470931714809318149093191483
:1013900090921A1490921B148092151471CF809120
:1013A000291490912A14DF91CF911F910F91FF90F2
:1013B000EF90DF90CF90BF90AF909F908F907F90F5
:1013C0000895549A559A813039F018F0823049F0D6
:1013D0000DC05C985D9808955C985D985C9A5D98E6
:1013E00008955C985D985C985D9A08955C985D9806
:1013F0005C9A5D98089510922E1410922D1401C0DD
:1014000078DBBFDB892BE1F701C04CDC7DDC892B6D
:10141000E1F7F1D880E0D5DF10921F1410921E146E
:1014200010921D1410921C1410921B1410921A1476
:1014300008952F923F924F925F926F927F928F9278
:101440009F92AF92BF92CF92DF92EF92FF920F9353
:101450001F93CF93DF93CDB7DEB7C25BD1090FB631
:10146000F894DEBF0FBECDBFCDB6DEB63CDD05972E
:1014700008F45FC6C3D94B015C01712CFF24F394BF
:10148000E12C15C0DDDCBAD9AB01BC014819590902
:101490006A097B098091040290910502A0E0B0E006
:1014A0007F2C84179507A607B70708F07E2CE6DC8B
:1014B000833311F0772031F316DD892B09F439C617
:1014C000BFDCC255DF4F8883CE5AD040B9DC582EDE
:1014D000B7DC482E152D00E01801282A81010F5F86
:1014E0001F4F0E3F27E0120770F08FEF8983EE2425
:1014F000E394F12C8E010F5F1F4F22E04FE060E07C
:1015000081E0ADD916C6A80143505109C455DF4F3B
:1015100059834883CC5AD0408DB79EB7C155DF4F11
:1015200099838883CF5AD040EDB7FEB7E41BF50B03
:101530000FB6F894FEBF0FBEEDBF2DB73EB72F5FBD
:101540003F4FC655DF4F39832883CA5AD040CF5406
:10155000DF4F39832883C15BD04050D94B015C01F8
:10156000712CFF24F394E12C13C048D9AB01BC01CA
:10157000481959096A097B098091060290E0A0E0A8
:10158000B0E07F2C84179507A607B70708F07E2CDC
:10159000AADC8017910718F4772039F355C571102C
:1015A00053C54EDC682E4CDC5C01C455DF4F4881CE
:1015B0005981CC5AD040452B09F491C5C655DF4F0F
:1015C000E880F980CA5AD0408101025011090E0DFD
:1015D0001F1D470135DCF40181934F01E017F1072E
:1015E000C9F775C52191920F0E171F07D9F721E092
:1015F000C255DF4FF881CE5AD040F33309F077C59A
:10160000981379C5962D92959F709370862D8F7043
:10161000362D329536953695337009F0CFC491301A
:1016200031F138F0923009F4DAC3933009F447C449
:10163000B6C4222391F0C455DF4FE880F980CC5A1C
:10164000D040C655DF4F08811981CA5AD0402A2D93
:10165000462D60E080E003D92EC5E12CF12C00E09E
:1016600010E02A2D462D60E080E0F9D824C590E0F6
:10167000FC018827EE58FF4F8F4F50C6BCDE198201
:10168000EE24E394F12C8E010F5F1F4F20E040E029
:1016900060E081E0E4D82FEF33EC49E021503040A6
:1016A0004040E1F700C000000E94BE0291DCA3DED2
:1016B0000F2EF5E1EF2EF12CF02D03EB14E120E0DD
:1016C00041E060E081E0CBD8F6C41982EE24E394D7
:1016D000F12C8E010F5F1F4F20E042E060E081E0BF
:1016E000BED8E9C4F501FF27E032F10508F0FEC1DC
:1016F0008827EE57FF4F8F4F11C68FEF8983EE2457
:10170000E394F12C8E010F5F1F4F28E043E060E06F
:1017100081E0A5D8D0C41982EE24E394F12C8E0187
:101720000F5F1F4F21E043E060E081E098D881E047
:101730008093201482E390E0A0E0B0E08093070261
:1017400090930802A0930902B0930A02B4C41982CC
:10175000EE24E394F12C8E010F5F1F4F22E043E053
:1017600060E081E07CD81092201484EF91E0A0E04A
:10177000B0E08093070290930802A0930902B0930F
:101780000A0299C451DC1982EE24E394F12C8E01F3
:101790000F5F1F4F23E043E060E081E060D88BC41F
:1017A00010922E140E94FB021982EE24E394F12C75
:1017B0008E010F5F1F4F24E043E060E081E04FD8CF
:1017C0007AC445DCC655DF4FE881F981CA5AD0405A
:1017D0008081F7DDEE24E394F12CC655DF4F0881BC
:1017E0001981CA5AD04025E043E060E081E037D853
:1017F00062C410922D1480E0E4DDEE24E394F12C19
:10180000C655DF4F08811981CA5AD04026E043E00F
:1018100060E081E024D84FC41982EE24E394F12CD7
:101820008E010F5F1F4F27E043E060E081E017D893
:1018300042C41982EE24E394F12C8E010F5F1F4FF6
:1018400028E043E060E081E00AD835C41982EE2444
:10185000E394F12C8E010F5F1F4F29E043E060E01D
:1018600081E00E942F0427C41982EE24E394F12C16
:101870008E010F5F1F4F2AE043E060E081E00E948D
:101880002F0419C41982EE24E394F12C8E010F5F0A
:101890001F4F2BE043E060E081E00E942F040BC467
:1018A0001982EE24E394F12C8E010F5F1F4F2CE080
:1018B00043E060E081E00E942F04FDC31982EE2422
:1018C000E394F12C8E010F5F1F4F2DE043E060E0A9
:1018D00081E00E942F04EFC31982EE24E394F12CDF
:1018E0008E010F5F1F4F2EE043E060E081E00E9419
:1018F0002F04E1C31982EE24E394F12C8E010F5FD3
:101900001F4F2FE043E060E081E00E942F04D3C32B
:101910001982EE24E394F12C8E010F5F1F4F20E11A
:1019200043E060E081E00E942F04C5C31982EE24E9
:10193000E394F12C8E010F5F1F4F21E143E060E043
:1019400081E00E942F04B7C31982EE24E394F12CA6
:101950008E010F5F1F4F22E143E060E081E00E94B3
:101960002F04A9C39FD9D0D9892BE1F78FE090E04C
:1019700080D91982EE24E394F12C8E010F5F1F4F62
:1019800023E143E060E081E00E942F0494C38AD900
:10199000BBD9892BE1F78FE790E06BD91982EE2450
:1019A000E394F12C8E010F5F1F4F24E143E060E0D0
:1019B00081E00E942F047FC31982EE24E394F12C6E
:1019C0008E010F5F1F4F25E143E060E081E00E9440
:1019D0002F0471C31982EE24E394F12C8E010F5F62
:1019E0001F4F26E143E060E081E00E942F0463C3C3
:1019F0001982EE24E394F12C8E010F5F1F4F27E133
:101A000043E060E081E00E942F0455C31982EE2478
:101A1000E394F12C8E010F5F1F4F28E143E060E05B
:101A200081E00E942F0447C31982EE24E394F12C35
:101A30008E010F5F1F4F29E143E060E081E00E94CB
:101A40002F0439C31982EE24E394F12C8E010F5F29
:101A50001F4F2AE143E060E081E00E942F042BC386
:101A60001982EE24E394F12C8E010F5F1F4F2BE1BE
:101A700043E060E081E00E942F041DC31982EE2440
:101A8000E394F12C8E010F5F1F4F2CE143E060E0E7
:101A900081E00E942F040FC31982EE24E394F12CFD
:101AA0008E010F5F1F4F2DE143E060E081E00E9457
:101AB0002F0401C31982EE24E394F12C8E010F5FF1
:101AC0001F4F2EE143E060E081E00E942F04F3C24B
:101AD0001982EE24E394F12C8E010F5F1F4F2FE14A
:101AE00043E060E081E00E942F04E5C28FEF89832C
:101AF000EE24E394F12C8E010F5F1F4F27E043E0AB
:101B000060E081E00E942F04D6C2F501FF27E93092
:101B1000F10508F0D7C08827EE55FF4F8F4FFEC361
:101B20008FEF8983EE24E394F12C8E010F5F1F4F1A
:101B300028E044E060E081E00E942F04BCC21982EA
:101B4000EE24E394F12C8E010F5F1F4F21E044E05F
:101B500060E081E00E942F04AEC21982EE24E3947B
:101B6000F12C8E010F5F1F4F22E044E060E081E026
:101B70000E942F04A0C21982EE24E394F12C8E015E
:101B80000F5F1F4F23E044E060E081E00E942F04DC
:101B900092C21982EE24E394F12C8E010F5F1F4F45
:101BA00024E044E060E081E00E942F0484C21982B6
:101BB000EE24E394F12C8E010F5F1F4F25E044E0EB
:101BC00060E081E00E942F0476C281E080931314CC
:101BD000C455DF4F28813981CC5AD040223031059D
:101BE00099F4C655DF4FE881F981CA5AD040808107
:101BF00080930D1481818093000288EC90E0909393
:101C00000202809301022BC0C455DF4F2881398125
:101C1000CC5AD04024303105B9F4C655DF4FE881A5
:101C2000F981CA5AD040808180930D1481818093BC
:101C30000002828190E0982F88272381822B909345
:101C40000202809301020BC010920D148EEF80935C
:101C5000000288EC90E090930202809301021982C6
:101C6000EE24E394F12C8E010F5F1F4F26E044E039
:101C700060E081E00E942F041EC2B5D999838A8357
:101C80006894EE24E1F8F12C8E010F5F1F4F27E0DE
:101C900045E060E081E00E942F040DC20E94FE0337
:101CA00099838A837B836C836894EE24E2F8F12C19
:101CB0008E010F5F1F4F28E045E060E081E00E9449
:101CC0002F04F9C18FEF8983EE24E394F12C8E0168
:101CD0000F5F1F4F27E044E060E081E00E942F0487
:101CE000EAC11982EE24E394F12C8E010F5F1F4F9D
:101CF00020E04AE060E081E00E942F04DCC119820C
:101D0000EE24E394F12C8E010F5F1F4F20E04BE097
:101D100060E081E00E942F04CEC11982EE24E3949A
:101D2000F12C8E010F5F1F4F20E04CE060E081E05E
:101D30000E942F04C0C11982EE24E394F12C8E017D
:101D40000F5F1F4F20E04DE060E081E00E942F0414
:101D5000B2C188EAEBE0F2E0DE01119601900D924B
:101D60008A95E1F78E010F5F1F4F7E01F8EAEF0EB3
:101D7000F11CF80181918F019AD80E151F05C9F742
:101D8000C755DF4F1882C95AD040EE24E394F12C96
:101D90008E0107551F4F20E04EE060E081E00E9479
:101DA0002F0489C11982EE24E394F12C8E010F5F78
:101DB0001F4F20E04FE060E081E00E942F047BC1D4
:101DC0008FEF8983EE24E394F12C8E010F5F1F4F78
:101DD00026E04FE060E081E00E942F046CC1873074
:101DE00009F442C0883009F44DC0863009F058C06B
:101DF000C455DF4F28813981CC5AD040232BE1F0E4
:101E000080E0282F30E0F901E853FB4ECF54DF4F3C
:101E1000A881B981C15BD040A20FB31F9C91908370
:101E20008F5F282F30E0C455DF4F48815981CC5A4D
:101E3000D0402417350728F3C455DF4F5881CC5ABA
:101E4000D04050931D1481E080931E141982EE241B
:101E5000E394F12C8E010F5F1F4F20E046E060E01D
:101E600082E00E942F0427C11982EE24E394F12C12
:101E70008E010F5F1F4F20E047E060E082E00E948C
:101E80002F0419C11982EE24E394F12C8E010F5F07
:101E90001F4F20E048E060E082E00E942F040BC169
:101EA0008FEF8983EE24E394F12C8E010F5F1F4F97
:101EB00026E04FE060E082E00E942F04FCC0873003
:101EC00009F442C0883009F44DC0863009F058C08A
:101ED000C455DF4F88819981CC5AD040892BE1F0DD
:101EE00080E0282F30E0F901E558FB4ECF54DF4F5A
:101EF000A881B981C15BD040A20FB31F9C91908390
:101F00008F5F282F30E0C455DF4FE881F981CC5A2C
:101F1000D0402E173F0728F3C455DF4FF881CC5A25
:101F2000D040F0931A1481E080931B141982EE24A0
:101F3000E394F12C8E010F5F1F4F20E046E060E03C
:101F400083E00E942F04B7C01982EE24E394F12CA1
:101F50008E010F5F1F4F20E047E060E083E00E94AA
:101F60002F04A9C01982EE24E394F12C8E010F5F97
:101F70001F4F20E046E060E083E00E942F049BC0FA
:101F80008FEF8983EE24E394F12C8E010F5F1F4FB6
:101F900026E04FE060E083E00E942F048CC08FEFCA
:101FA0008983EE24E394F12C8E010F5F1F4F25E00F
:101FB0004FE060E081E00E942F047DC08FEF8983B5
:101FC000EE24E394F12C8E010F5F1F4F2EE04FE0C3
:101FD00060E081E00E942F046EC08FEF8983EE24C1
:101FE000E394F12C8E010F5F1F4F21E04FE060E082
:101FF00081E00E942F040E94FE034B015C0111E06E
:1020000000E017C00E94FE03AB01BC01481959094A
:102010006A097B098091040290910502A0E0B0E07A
:10202000712E84179507A607B70708F0702E0E9437
:1020300020070E943E078333F1F10E947307892B2A
:10204000D1F17720F9F237C08FEF8983EE24E39442
:10205000F12C8E010F5F1F4F2DE04FE060E081E01B
:102060000E942F040E94FE034B015C01F12C11E041
:1020700000E017C00E94FE03AB01BC0148195909DA
:102080006A097B098091040290910502A0E0B0E00A
:10209000F12E84179507A607B70708F0F02E0E94C7
:1020A00020070E943E07833331F00E947307892B7B
:1020B00011F0FF20F9F2C155DF4F28813981CF5A45
:1020C000D0400FB6F8943EBF0FBE2DBF32C00E9465
:1020D0002007942D950D960D9A0DF70183CA0E9445
:1020E0002007942D950D960D9A0D20E081CA981722
:1020F00009F473CF0FC08FEF8983EE24E394F12CA2
:102100008E010F5F1F4F2BE04FE060E081E00E94E7
:102110002F0471CF8FEF8983EE24E394F12C8E018D
:102120000F5F1F4F2BE04FE060E081E00E942F0423
:1021300054CF0FB6F894DEBE0FBECDBECE54DF4FE7
:102140000FB6F894DEBF0FBECDBFDF91CF911F91C8
:102150000F91FF90EF90DF90CF90BF90AF909F9046
:102160008F907F906F905F904F903F902F90089549
:10217000EAE6F0E080818A6080838DB380638DBB66
:10218000789408951F920F920FB60F9211248F9397
:1021900081E08093AB148F910F900FBE0F901F9032
:1021A00018951F920F920FB60F9211248F9381E012
:1021B0008093AC148F910F900FBE0F901F901895C5
:1021C000F8940E94F2030E94EC036B9A739A569A59
:1021D0005E98579A5F9880E0F4D88FE790E00E946D
:1021E00060058FE790E00E94390683E090E00E944E
:1021F000FF060E94B1030E94A70360E080E00E94F6
:1022000067038BE691E00E94CC030E94FE036B0102
:102210007C0110E0C1E000E017C00E9420070E948E
:10222000FE03AB01BC014C195D096E097F09809169
:10223000040290910502A0E0B0E01C2F84179507DE
:10224000A607B70708F0102F0E947307892B11F01B
:10225000112319F3E6E5F1E0A3EBB4E188EC94E196
:1022600024912D933196A817B907D1F781DFE1D8D2
:1022700080912E1481110E94390880912D148111B2
:102280000E942D0980912C14882341F080912514FF
:1022900090912614019711F410922C1480912B1414
:1022A000811110922B140E94FE03009121141091B1
:1022B000221420912314309124146B017C01C01A44
:1022C000D10AE20AF30A0091070210910802209154
:1022D000090230910A02C016D106E206F30638F26E
:1022E00060932114709322148093231490932414E8
:1022F0008BB180588BB980912014882309F4B7CF13
:102300000F2EF5E1EF2EF12CF02D03EB14E120E080
:1023100041E060E081E00E942F04A9CFEE0FFF1F93
:10232000881F8BBF0790F691E02D1994F894FFCF8A
:10233000FEC80001E80364F401000033672364333E
:102340003477AA33333333AA33001741004348525A
:1023500059534C45524343445343495343414E4ED2
:10236000455277BBAA0045330017410043485259F4
:10237000534C45524343445343495343414E4E45C6
:102380005277330017410043485259534C4552434A
:1023900043445343495343414E4E455277BB00009B
:1023A000452398330017410043485259534C455236
:1023B0004343445343495343414E4E45527733665A
:1023C000332200330017410043485259534C4552C1
:1023D0004343445343495343414E4E45527788AAA1
:0423E000BBCC33003F
:00000001FF
