:10000000B5C20000E0C20000DEC20000DCC2000099
:10001000DAC200000C949D0F0C94AC0FD4C2000007
:10002000D2C20000D0C20000CEC20000CCC200008C
:10003000CAC20000EFC30000C6C20000C4C2000074
:10004000C2C20000C0C20000BEC20000BCC20000AC
:10005000BAC20000B8C20000B6C20000B4C20000BC
:10006000B2C2000087C40000FAC40000ACC20000A5
:10007000AAC20000A8C20000A6C20000A4C20000DC
:10008000A2C20000A0C200009EC200009CC20000EC
:1000900082C50000BDC5000096C2000094C20000E9
:1000A00092C2000090C200008EC200008CC200000C
:1000B0008AC2000088C2000086C2000084C200001C
:1000C00082C2000080C200007EC2000028C600007C
:1000D0005BC6000078C2000012C7000049C70000DC
:1000E00072C20000820A9A0AA80AB50ABA0CC10DA7
:1000F000C10DC10DC10DC10D520D600D6E0D7C0DF8
:100100008A0DB30DC00ACE0AEA0A050B130B240BA5
:100110003C0B4F0B5C0B690B760B830B900B9D0B11
:10012000AA0BB70BC40BD10BDE0BEC0B000C130CA2
:10013000200C2D0C3B0C490C570C650C730C810CDE
:100140008F0C9D0CC50CD40CE20CF00CFE0C0C0DAD
:100150001A0D1E0D2F0D43485259534C455243431F
:10016000445343495343414E4E4552000000000062
:10017000000000000000000000000000000000007F
:10018000000000000000000000000000000000006F
:10019000000000000000000000000000000000005F
:1001A000008080C0E0F0F0F8FCFEFE0000FEFCFCE9
:1001B000F8F0E0E0C0800000000000000000000057
:1001C000000000000000000000000000000000002F
:1001D000000000000000000000000000000000001F
:1001E000000000000000000000000000000000000F
:1001F00000000000000000000000000000000000FF
:1002000000000000000000000000000000000000EE
:100210000000000000000080C0E0E0F0F8FCFCFE00
:10022000FFFFFFFFFFFFFFFFFFFF1F0000FFFFFFBC
:10023000FFFFFFFFFFFFFFFFFEFCF8F8F0E0C0C08C
:10024000800000000000000000000000000000002E
:10025000000000000000000000000000000000009E
:10026000000000000000000000000000000000008E
:10027000000000000000000000000000000000007E
:10028000000000000000000000000000000000006E
:10029000000010F4E6E7E7CFCF8F9F1F1F1F3F3FFF
:1002A0003F3F7F7F7F7FFFFFFFFF00000001FFFFD9
:1002B000FFFF7F7F7F7F3F3F3F3F1F1F1F9F8FCFEE
:1002C000CFCFE6E674000000000000000000000050
:1002D000000000000000000000000000000000001E
:1002E000000000000000000000000000000000000E
:1002F00000000000000000000000000000000000FE
:1003000000000000000000000000000000000000ED
:1003100000000000073FFFFFFFFFFFFFFFFFFEFEA3
:10032000FCFCFCF8F8F0F0300000000000000000D9
:1003300070F0F0F8F8FCFCFCFEFEFFFFFFFFFFFF93
:10034000FFFF3F0700000000000000000000000069
:10035000000000000000000000000000000000009D
:10036000000000000000000000000000000000008D
:10037000000000000000000000000000000000007D
:10038000000000000000000000000000000000006D
:10039000000000000000011FFFFFFFFFFFFFFFFF45
:1003A000FFFF7F1F0783C0E0F0FCFEFFFFFCF8F0BB
:1003B000E0C0030F1F7FFFFFFFFFFFFFFFFFFF7F77
:1003C0000F0100000000000000000000000000001D
:1003D000000000000000000000000000000000001D
:1003E000000000000000000000000000000000000D
:1003F00000000000000000000000000000000000FD
:1004000000000000000000000000000000000000EC
:10041000000000000000000000073FFFFF7F1F8773
:10042000E3F0F8FCFEFFFFFFFFFFFFFFFFFFFFFF12
:10043000FFFFFFFEFCF8E1C38F1F7FFFFF1F0300DC
:1004400000000000000000000000000000000000AC
:10045000000000000000000000000000000000009C
:10046000000000000000000000000000000000008C
:1004700000008080C0C0C0C0C0C0C0C0C0800080BC
:10048000C0C0C00000000000000080C0C0C000006C
:10049000C0C0C0C0C0C0C0C0C0C080818002C3C3D3
:1004A000C3C383030303030383C3C3038383C3C39C
:1004B000C3C3C3C3C3C3C3C303030081C0C0C0005D
:1004C00000000000000000000080C0C0C0C0C0C02C
:1004D000C0C0C0C0C0C08000C0C0C0C0C0C0C0C01C
:1004E000C0C080808000000000000000000000000C
:1004F0000E1F3F3F31306060606060202020003F71
:100500003F3F3F060404040404043F3F3F3F000014
:100510003F3F3F3F00040C1C1C3C373723230000A7
:100520000103073F3E3C3E030101000033232767E0
:10053000666666662E3C3C3C1800003F3F3F3F200D
:100540002020202020202020003F3F3F3F26242441
:1005500024242424242420003F3F3F3F0000040C97
:100560001C3C3F37232300000000000011241FBE65
:10057000CFEFD1E2DEBFCDBF00E00CBF14BE0FB69F
:10058000F894A89580916000886180936000109233
:1005900060000FBE12E0A0E0B2E0E2EEF0E200E0A8
:1005A0000BBF02C007900D92A03BB107D9F726E11F
:1005B000A0EBB2E001C01D92A239B207E1F70E94A0
:1005C000BB0F0C946F101CCDA0E8B0E01C92E1E8CA
:1005D000F0E01082109285001092840080E284B9CD
:1005E00080E48C9387E090E090938900809388006A
:1005F00089E080830895109280001092810010920B
:10060000850010928400109289001092880008954D
:1006100000000000000000000000000000000000DA
:1006200000000000000000000000000000000000CA
:1006300000000000000000000000000000000000BA
:1006400000000000000000000000000000000000AA
:100650000000000008959FEF91B988B9109AD8DF83
:100660001098D6CF0895886BF6CF08951298119AF6
:1006700008951198129A0895CF93C82F803428F4C2
:10068000F5DF8C2F8064E7DF05C0F3DF80EC8C0F93
:100690008064E1DFCF9108958091A315803410F438
:1006A000E5CF0895E6CF0895F7DF17B8139882B124
:1006B000816182B9ADDF86B197B19FEF97B992B1F1
:1006C0009E7E92B90895F0DF829581700895CF9350
:1006D000DF93D82FC62F8093A3156093A415DCDF7A
:1006E0008D2FCADF8C2F869586958695BCDFDF918E
:1006F000CF910895CF93C82F6091A4158091A31531
:10070000E6DF8FEF87B9C8B982B1896082B980DF2F
:10071000109813987DDF8091A3158F5F8093A315A8
:10072000CF9108951F93CF93DF93D82F10E0612FBF
:1007300080E0CDDFC0E08D2FDDDFCF5FC038D9F79F
:10074000185F1034A1F7DF91CF911F91089580E0D9
:10075000E9CF08958BDF8FE37EDF8BDF8FE37BCFE5
:10076000089581B18FEF81B997B187B915982FEFAF
:1007700089EF90E0215080409040E1F700C00000F8
:10078000159A01C045DF9FDF8111FCCFE3DFDFDF7A
:1007900060E080E09CCF0895FF920F931F93CF936A
:1007A000DF93EC01F12C6F2D80E091DF8E0100587A
:1007B0001F4FFE0184919EDF2196C017D107C9F714
:1007C000F8E0FF0EE80180E4F812EDCFDF91CF9161
:1007D0001F910F91FF9008951092B9008CE08093C3
:1007E000B800089582E08093B00094E09093B10047
:1007F000809370008AEF8093B30008952FB7F89428
:100800006091B1027091B2028091B3029091B402F2
:100810002FBF08951F920F920FB60F9211248F933E
:100820009F93AF93BF938091B1029091B202A09138
:10083000B302B091B4020196A11DB11D8093B10223
:100840009093B202A093B302B093B402BF91AF9160
:100850009F918F910F900FBE0F901F9018958F92C0
:100860009F92AF92BF92CF92DF92EF92FF920F933F
:100870001F93CF93DF93CDB7DEB7CDB6DEB647017A
:1008800096E0890E911CADB7BEB7A819B9090FB68D
:10089000F894BEBF0FBEADBFEDB7FEB731965F0196
:1008A00093E311969C93F7013296D5011196FC9330
:1008B000119792E09E0D12969C93B0E16B9F400DB4
:1008C0001124E0E48E9F400D1124D50113964C9322
:1008D000139714962C93E114F104A9F1A02FB12FD2
:1008E000F5013596A7014B5F5F4F4A0D5B1D2D91BA
:1008F0002193E417F507D9F7B5E0EB0EF11CE2E020
:10090000EE16F10460F0F501319695012E0D3F1DB4
:1009100080E09191890FE217F307D9F701C080E0D9
:10092000F501EE0DFF1D80838114910481F0850196
:10093000A80CB91CD8018D918D0190E0B8D20A1590
:100940001B05C1F704C0B5E0EB0EF11CDCCF80E065
:100950000FB6F894DEBE0FBECDBEDF91CF911F91D2
:100960000F91FF90EF90DF90CF90BF90AF909F904E
:100970008F9008951F920F920FB60F9211240BB60D
:100980000F922F933F934F935F936F937F938F9328
:100990009F93AF93BF93EF93FF934091C00020913B
:1009A000C60030E048718091B002882379F140643C
:1009B0001092B0028091EB159091EC15A091ED157D
:1009C000B091EE150196A11DB11D8093EB1590938A
:1009D000EC15A093ED15B093EE158091071450918E
:1009E000061490E08096851B91098F719927892BB9
:1009F00069F0E0910714EF71F0E0EE0FFF1FE65F82
:100A0000FB4E808191819062918380838091071455
:100A100090E001968F7199276091061470E0681735
:100A2000790751F080930714342B880F991FFC012C
:100A3000E65FFB4E31832083FF91EF91BF91AF9131
:100A40009F918F917F916F915F914F913F912F91E6
:100A50000F900BBE0F900FBE0F901F9018951F9216
:100A60000F920FB60F9211240BB60F928F939F9394
:100A7000EF93FF939091091480910814981779F0DF
:100A80008091081490E001968F7199278093081443
:100A9000FC01E65BFB4E80818093C60005C0E1EC63
:100AA000F0E080818F7D8083FF91EF919F918F9106
:100AB0000F900BBE0F900FBE0F901F9018951092C5
:100AC0000914109208141092071410920614992316
:100AD00024F422E02093C0009F779093C500809378
:100AE000C40088E98093C10086E08093C200089525
:100AF0009091071480910614981781F08091061444
:100B000090E001968F71992780930614880F991FA2
:100B1000FC01E65FFB4E80819181089580E092E0C8
:100B200008959091071480910614981769F0E09148
:100B30000614F0E03196EF71FF27EE0FFF1FE65F1E
:100B4000FB4E80819181089580E092E0089540916C
:100B5000091450E04F5F5F4F4F71552720910814E3
:100B600030E024173507D1F3FA01E65BFB4E8083B2
:100B700040930914E1ECF0E0808180628083089565
:100B8000809107142091061490E08096821B9109B1
:100B90008F71992708951F920F920FB60F9211240B
:100BA0000BB60F922F933F934F935F936F938F9357
:100BB0009F93EF93FF938091C8002091CE0030E087
:100BC000682F68718091431390E001968F73992785
:100BD0004091421350E04817590751F08093431356
:100BE000362B880F991FFC01EA5BFC4E3183208372
:100BF000FF91EF919F918F916F915F914F913F91F5
:100C00002F910F900BBE0F900FBE0F901F90189555
:100C10001F920F920FB60F9211240BB60F928F9363
:100C20009F93EF93FF9390914513809144139817EE
:100C300079F08091441390E001968F739927809307
:100C40004413FC01EA53FC4E80818093CE0005C022
:100C5000E9ECF0E080818F7D8083FF91EF919F919F
:100C60008F910F900BBE0F900FBE0F901F90189595
:100C70001092451310924413109243131092421392
:100C8000992324F422E02093C8009F779093CD000D
:100C90008093CC0088E98093C90086E08093CA00E5
:100CA00008959091431380914213981781F0809199
:100CB000421390E001968F73992780934213880F17
:100CC000991FFC01EA5BFC4E80819181089580E0D0
:100CD00092E008954091451350E04F5F5F4F4F738E
:100CE00055272091441330E024173507D1F3FA013A
:100CF000EA53FC4E808340934513E9ECF0E0808199
:100D0000806280830895809143132091421390E084
:100D1000805C9F4F821B91098F73992708951F92C2
:100D20000F920FB60F9211240BB60F922F933F9391
:100D30004F938F939F93EF93FF938091D0004091B7
:100D4000D60080913C0390913D03019697702091CD
:100D50003A0330913B038217930741F090933D0390
:100D600080933C03FC01EE5BFC4F4083FF91EF91CD
:100D70009F918F914F913F912F910F900BBE0F90AC
:100D80000FBE0F901F9018951F920F920FB60F92E3
:100D900011240BB60F922F933F938F939F93EF9352
:100DA000FF93209140033091410380913E03909145
:100DB0003F032817390789F080913E0390913F0344
:100DC0000196977090933F0380933E03FC01EE5B86
:100DD000F44F80818093D60005C0E1EDF0E0808182
:100DE0008F7D8083FF91EF919F918F913F912F9104
:100DF0000F900BBE0F900FBE0F901F901895109282
:100E000041031092400310923F0310923E03109250
:100E10003D0310923C0310923B0310923A03992336
:100E200024F422E02093D0009F779093D500809304
:100E3000D40088E98093D10086E08093D2000895A1
:100E400020913C0330913D0380913A0390913B0304
:100E50002817390781F080913A0390913B0301965E
:100E6000977090933B0380933A03FC01EE5BFC4F39
:100E7000808190E0089580E092E0089520913C0305
:100E800030913D0380913A0390913B032817390735
:100E900059F0E0913A03F0913B033196F770EE5B25
:100EA000FC4F808190E0089580E092E008954091A9
:100EB0004003509141034F5F5F4F577020913E03B5
:100EC00030913F0342175307C9F3FA01EE5BF44F29
:100ED00080835093410340934003E1EDF0E0808133
:100EE00080628083089580913C0390913D0320911E
:100EF0003A0330913B03821B930B977008951F9226
:100F00000F920FB60F9211240BB60F922F933F93AF
:100F10004F935F938F939F93EF93FF9320913001B3
:100F20003091360128718091B70290E001968F735D
:100F300099274091B60250E04817590739F080933D
:100F4000B702FC01E654FD4F308301C024E020933A
:100F5000B502FF91EF919F918F915F914F913F91DA
:100F60002F910F900BBE0F900FBE0F901F901895F2
:100F70001F920F920FB60F9211240BB60F928F9300
:100F80009F93EF93FF939091B9028091B8029817C5
:100F900079F08091B80290E001968F739927809341
:100FA000B802FC01E650FD4F80818093360105C0F8
:100FB000E1E3F1E080818F7D8083FF91EF919F914C
:100FC0008F910F900BBE0F900FBE0F901F90189532
:100FD00098E088E10FB6F894A895809360000FBE62
:100FE00090936000FFCFCF93DF931F921F92CDB7F6
:100FF000DEB780918E1690918F16009731F4CE0156
:10100000815996419A83898308C09E012F5F3F4F83
:10101000A901481B590B5A83498389819A810F90F2
:101020000F90DF91CF91089501C062DDA9DD892B7A
:10103000E1F71092751410927314109274148FE7E4
:1010400090E03DDDC1DA81E080938414089501C011
:1010500028DE59DE892BE1F7109272141092711478
:10106000109270148FE790E003DE81E08093831488
:101070000895EF92FF920F931F93CF93DF9380DD3C
:10108000892B49F14EDD292F30E020343105B9F4A8
:10109000E0907514EE2099F0F12C0EE416E120E0BA
:1010A00049E060E082E0DBDB1092751421DD809383
:1010B0004E16809175148F5F809375140CC0C0918B
:1010C0007514D0E015DDC25BD94E8883809175140C
:1010D0008F5F80937514809174148823C1F0809180
:1010E000B0028823A1F080917314882361F0C0E0DE
:1010F000EC2FF0E0E65CF94E808129DDCF5F809136
:101100007314C817A8F3109273141092741480917A
:101110007D1490917E14DF91CF911F910F91FF90DC
:10112000EF900895EF92FF920F931F93CF93DF9369
:10113000EADD892B01F1E7DD082F882381F010E03B
:10114000C0917214D0E0ADDDCB53DA4E888390911C
:1011500072149F5F909372141F5F0113F1CF4EDBE7
:1011600060936C1470936D1480936E1490936F144D
:1011700081E080936B1442DB00916C1410916D142C
:1011800020916E1430916F14DC01CB01801B910B08
:10119000A20BB30BC397A105B10588F0E0907214C0
:1011A000EE2069F0F12C05EC15E120E049E060E06B
:1011B00083E055DB1092721410926B143AC01EDB60
:1011C00000916C1410916D1420916E1430916F1475
:1011D000DC01CB01801B910BA20BB30BC397A105C4
:1011E000B10518F010926B1424C0809171148823FB
:1011F000D9F080916B14811117C0809170148823ED
:1012000061F0C0E0EC2FF0E0E151FA4E808162DD48
:10121000CF5F80917014C817A8F3109270141092C9
:10122000711481E080936B1480917F1490918014ED
:1012300005C0809171148111E0CFF6CFDF91CF917D
:101240001F910F91FF90EF900895549A559A813015
:1012500039F018F0823049F00DC05C985D9808951F
:101260005C985D985C9A5D9808955C985D985C9830
:101270005D9A08955C985D985C9A5D9808951092C7
:1012800084141092831401C033DC7ADC892BE1F7DB
:1012900001C007DD38DD892BE1F7ADD980E0D5DF6E
:1012A0001092751410927414109273141092721498
:1012B000109271141092701408952F923F924F92D1
:1012C0005F926F927F928F929F92AF92BF92CF92D6
:1012D000DF92EF92FF920F931F93CF93DF93CDB7DF
:1012E000DEB7C25BD1090FB6F894DEBF0FBECDBF2B
:1012F000CDB6DEB6F8DD059708F4F6C57FDA4B010A
:101300005C01712CFF24F394E12C15C099DD76DA91
:10131000AB01BC01481959096A097B098091000297
:1013200090910102A0E0B0E07F2C84179507A607FA
:10133000B70708F07E2CA2DD833311F0772031F35C
:10134000D2DD892B09F4D0C57BDDC255DF4F888300
:10135000CE5AD04075DD582E73DD482E152D00E095
:101360001801282A81010F5F1F4F0E3F27E0120747
:1013700070F08FEF8983EE24E394F12C8E010F5FE0
:101380001F4F22E04FE060E081E069DAADC5A801BF
:1013900043505109C455DF4F59834883CC5AD0403C
:1013A0008DB79EB7C155DF4F99838883CF5AD04000
:1013B000EDB7FEB7E41BF50B0FB6F894FEBF0FBEFA
:1013C000EDBF2DB73EB72F5F3F4FC655DF4F398377
:1013D0002883CA5AD040CF54DF4F39832883C15B5A
:1013E000D0400CDA4B015C01712CFF24F394E12C0A
:1013F00013C004DAAB01BC01481959096A097B0919
:101400008091020290E0A0E0B0E07F2C8417950765
:10141000A607B70708F07E2C66DD8017910718F441
:10142000772039F3EFC47110EDC40ADD682E08DDB2
:101430005C01C455DF4F48815981CC5AD040452BBF
:1014400009F429C5C655DF4FE880F980CA5AD04053
:101450008101025011090E0D1F1D4701F1DCF4013D
:1014600081934F01E017F107C9F70DC52191920F44
:101470000E171F07D9F721E0C255DF4FF881CE5A6A
:10148000D040F33309F00FC598131FC5962D9295E0
:101490009F709370862D8F70362D329536953695C8
:1014A000337009F06CC4913031F138F0923009F4A6
:1014B00077C3933009F4E4C353C4222391F0C45595
:1014C000DF4FE880F980CC5AD040C655DF4F088105
:1014D0001981CA5AD0402A2D462D60E080E0BFD93C
:1014E000C6C4E12CF12C00E010E02A2D462D60E06E
:1014F00080E0B5D9BCC490E0FC018827EE58FF4FCE
:101500008F4FE5C5BCDE1982EE24E394F12C8E01E9
:101510000F5F1F4F20E040E060E081E0A0D92FEF97
:1015200033EC49E0215030404040E1F700C000007A
:1015300025D84EDDA4DE0F2EF5E1EF2EF12CF02D97
:1015400005E216E120E041E060E081E088D98FC447
:101550001982EE24E394F12C8E010F5F1F4F20E0DF
:1015600042E060E081E07BD982C4F501FF27E032F0
:10157000F10508F0F0C18827EE57FF4F8F4FA7C540
:101580008FEF8983EE24E394F12C8E010F5F1F4FC0
:1015900028E043E060E081E062D969C41982EE246A
:1015A000E394F12C8E010F5F1F4F21E043E060E0D8
:1015B00081E055D981E08093761482E390E0A0E049
:1015C000B0E08093030290930402A0930502B093CD
:1015D00006024DC41982EE24E394F12C8E010F5FB4
:1015E0001F4F22E043E060E081E039D91092761489
:1015F00084EF91E0A0E0B0E08093030290930402B6
:10160000A0930502B093060232C40EDD1982EE24C7
:10161000E394F12C8E010F5F1F4F23E043E060E065
:1016200081E01DD924C4109284140E94FB02198207
:10163000EE24E394F12C8E010F5F1F4F24E043E072
:1016400060E081E00CD913C402DDC655DF4FE881AC
:10165000F981CA5AD0408081F8DDEE24E394F12C60
:10166000C655DF4F08811981CA5AD04025E043E0B2
:1016700060E081E0F4D8FBC31092831480E0E5DDE4
:10168000EE24E394F12CC655DF4F08811981CA5A24
:10169000D04026E043E060E081E0E1D8E8C3198271
:1016A000EE24E394F12C8E010F5F1F4F27E043E0FF
:1016B00060E081E0D4D8DBC31982EE24E394F12CFE
:1016C0008E010F5F1F4F28E043E060E081E0C7D844
:1016D000CEC31982EE24E394F12C8E010F5F1F4FCD
:1016E00029E043E060E081E0BAD8C1C31982EE246A
:1016F000E394F12C8E010F5F1F4F2AE043E060E07E
:1017000081E0ADD8B4C31982EE24E394F12C8E01AC
:101710000F5F1F4F2BE043E060E081E0A0D8A7C33C
:101720001982EE24E394F12C8E010F5F1F4F2CE001
:1017300043E060E081E093D89AC31982EE24E394F9
:10174000F12C8E010F5F1F4F2DE043E060E081E040
:1017500086D88DC31982EE24E394F12C8E010F5F9D
:101760001F4F2EE043E060E081E079D880C319820A
:10177000EE24E394F12C8E010F5F1F4F2FE043E026
:1017800060E081E06CD873C31982EE24E394F12CFD
:101790008E010F5F1F4F20E143E060E081E05FD8E2
:1017A00066C31982EE24E394F12C8E010F5F1F4F64
:1017B00021E143E060E081E052D859C31982EE2470
:1017C000E394F12C8E010F5F1F4F22E143E060E0B4
:1017D00081E045D84CC365DA96DA892BE1F78FE0D2
:1017E00090E046DA1982EE24E394F12C8E010F5F2B
:1017F0001F4F23E143E060E081E031D838C351DA84
:1018000082DA892BE1F78FE790E032DA1982EE2451
:10181000E394F12C8E010F5F1F4F24E143E060E061
:1018200081E01DD824C31982EE24E394F12C8E01AB
:101830000F5F1F4F25E143E060E081E010D817C340
:101840001982EE24E394F12C8E010F5F1F4F26E1E5
:1018500043E060E081E003D80AC31982EE24E394F8
:10186000F12C8E010F5F1F4F27E143E060E081E024
:101870000E942F04FCC21982EE24E394F12C8E0105
:101880000F5F1F4F28E143E060E081E00E942F04DA
:10189000EEC21982EE24E394F12C8E010F5F1F4FEC
:1018A00029E143E060E081E00E942F04E0C2198258
:1018B000EE24E394F12C8E010F5F1F4F2AE143E0E9
:1018C00060E081E00E942F04D2C21982EE24E394EA
:1018D000F12C8E010F5F1F4F2BE143E060E081E0B0
:1018E0000E942F04C4C21982EE24E394F12C8E01CD
:1018F0000F5F1F4F2CE143E060E081E00E942F0466
:10190000B6C21982EE24E394F12C8E010F5F1F4FB3
:101910002DE143E060E081E00E942F04A8C219821B
:10192000EE24E394F12C8E010F5F1F4F2EE143E074
:1019300060E081E00E942F049AC21982EE24E394B1
:10194000F12C8E010F5F1F4F2FE143E060E081E03B
:101950000E942F048CC28FEF8983EE24E394F12C34
:101960008E010F5F1F4F27E043E060E081E00E949F
:101970002F047DC2F501FF27E930F10508F083C08F
:101980008827EE55FF4F8F4FA2C38FEF8983EE2438
:10199000E394F12C8E010F5F1F4F28E044E060E0DC
:1019A00081E00E942F0463C21982EE24E394F12C9B
:1019B0008E010F5F1F4F21E044E060E081E00E9454
:1019C0002F0455C21982EE24E394F12C8E010F5F8F
:1019D0001F4F22E044E060E081E00E942F0447C2F4
:1019E0001982EE24E394F12C8E010F5F1F4F23E048
:1019F00044E060E081E00E942F0439C21982EE24A5
:101A0000E394F12C8E010F5F1F4F24E044E060E06F
:101A100081E00E942F042BC21982EE24E394F12C62
:101A20008E010F5F1F4F25E044E060E081E00E94DF
:101A30002F041DC281E080936A1419C2D4DA9983FD
:101A40008A836894EE24E1F8F12C8E010F5F1F4F1A
:101A500027E045E060E081E00E942F0408C20E9478
:101A6000FE0399838A837B836C836894EE24E2F877
:101A7000F12C8E010F5F1F4F28E045E060E081E010
:101A80000E942F04F4C18FEF8983EE24E394F12C9C
:101A90008E010F5F1F4F27E044E060E081E00E946D
:101AA0002F04E5C11982EE24E394F12C8E010F5F1F
:101AB0001F4F20E04AE060E081E00E942F04D7C180
:101AC0001982EE24E394F12C8E010F5F1F4F20E06A
:101AD0004BE060E081E00E942F04C9C11982EE242E
:101AE000E394F12C8E010F5F1F4F20E04CE060E08B
:101AF00081E00E942F04BBC11982EE24E394F12CF3
:101B00008E010F5F1F4F20E04DE060E081E00E94FA
:101B10002F04ADC188EAE7E0F2E0DE011196019002
:101B20000D928A95E1F78E010F5F1F4F7E01F8EA53
:101B3000EF0EF11CF80181918F01B9D90E151F0527
:101B4000C9F7C755DF4F1882C95AD040EE24E39435
:101B5000F12C8E0107551F4F20E04EE060E081E040
:101B60000E942F0484C11982EE24E394F12C8E018B
:101B70000F5F1F4F20E04FE060E081E00E942F04E4
:101B800076C18FEF8983EE24E394F12C8E010F5FF1
:101B90001F4F26E04FE060E081E00E942F0467C104
:101BA000873009F442C0883009F44DC0863009F00E
:101BB00058C0C455DF4F28813981CC5AD040232BDF
:101BC000E1F080E0282F30E0F901E65CF94ECF54D7
:101BD000DF4FA881B981C15BD040A20FB31F9C9198
:101BE00090838F5F282F30E0C455DF4F48815981A3
:101BF000CC5AD0402417350728F3C455DF4F5881FD
:101C0000CC5AD0405093731481E08093741419829D
:101C1000EE24E394F12C8E010F5F1F4F20E046E08D
:101C200060E082E00E942F0422C11982EE24E39436
:101C3000F12C8E010F5F1F4F20E047E060E082E053
:101C40000E942F0414C11982EE24E394F12C8E011A
:101C50000F5F1F4F20E048E060E082E00E942F0409
:101C600006C18FEF8983EE24E394F12C8E010F5F80
:101C70001F4F26E04FE060E082E00E942F04F7C093
:101C8000873009F442C0883009F44DC0863009F02D
:101C900058C0C455DF4F88819981CC5AD040892BD8
:101CA000E1F080E0282F30E0F901E151FA4ECF5405
:101CB000DF4FA881B981C15BD040A20FB31F9C91B7
:101CC00090838F5F282F30E0C455DF4FE881F98182
:101CD000CC5AD0402E173F0728F3C455DF4FF88168
:101CE000CC5AD040F093701481E080937114198223
:101CF000EE24E394F12C8E010F5F1F4F20E046E0AD
:101D000060E083E00E942F04B2C01982EE24E394C5
:101D1000F12C8E010F5F1F4F20E047E060E083E071
:101D20000E942F04A4C01982EE24E394F12C8E01AA
:101D30000F5F1F4F20E046E060E083E00E942F0429
:101D400096C08FEF8983EE24E394F12C8E010F5F10
:101D50001F4F26E04FE060E083E00E942F0487C021
:101D60008FEF8983EE24E394F12C8E010F5F1F4FD8
:101D700025E04FE060E081E00E942F0478C08FEF03
:101D80008983EE24E394F12C8E010F5F1F4F2EE028
:101D90004FE060E081E00E942F0469C08FEF8983EB
:101DA000EE24E394F12C8E010F5F1F4F21E04FE0F2
:101DB00060E081E00E942F040E94FE034B015C0161
:101DC00011E000E016C00E94FE03AB01BC014819FF
:101DD00059096A097B098091000290910102A0E0F3
:101DE000B0E0712E84179507A607B70708F0702E8C
:101DF00027D844D88333D9F176D8892BC1F17720FD
:101E000011F335C08FEF8983EE24E394F12C8E011A
:101E10000F5F1F4F2DE04FE060E081E00E942F0434
:101E20000E94FE034B015C01F12C11E000E017C0A1
:101E30000E94FE03AB01BC01481959096A097B09DC
:101E40008091000290910102A0E0B0E0F12E841791
:101E50009507A607B70708F0F02E0E9420070ED8B6
:101E6000833329F040D8892B11F0FF2009F3C155A5
:101E7000DF4F28813981CF5AD0400FB6F8943EBF4A
:101E80000FBE2DBF31C00E942007942D950D960DD9
:101E90009A0DF701EBCA0E942007942D950D960D1F
:101EA0009A0D20E0E9CA981709F478CF8FEF89835B
:101EB000EE24E394F12C8E010F5F1F4F2BE04FE0D7
:101EC00060E081E00E942F0469CF8FEF8983EE24C8
:101ED000E394F12C8E010F5F1F4F2BE04FE060E089
:101EE00081E00E942F0468CF0FB6F894DEBE0FBECB
:101EF000CDBECE54DF4F0FB6F894DEBF0FBECDBFC0
:101F0000DF91CF911F910F91FF90EF90DF90CF90D5
:101F1000BF90AF909F908F907F906F905F904F9009
:101F20003F902F900895EAE6F0E080818A608083F8
:101F30008DB380638DBB789408951F920F920FB676
:101F40000F9211248F9381E08093B0028F910F90B4
:101F50000FBE0F901F9018951F920F920FB60F9201
:101F600011248F9381E0809360158F910F900FBEA5
:101F70000F901F901895F8940E94F2030E94EC03B2
:101F80006B9A739A569A5E98579A5F9880E05DD9DB
:101F90008FE790E00E945F058FE790E00E9438068F
:101FA00083E090E00E94FF060E94B1030E94A70315
:101FB00060E080E00E9467038BE691E00E94CC0322
:101FC0000E94FE036B017C0110E0C1E000E017C03D
:101FD0000E9420070E94FE03AB01BC014C195D0961
:101FE0006E097F098091000290910102A0E0B0E0AB
:101FF0001C2F84179507A607B70708F0102F0E941B
:102000007307892B11F0112319F3E6E5F1E0A5E23E
:10201000B6E18AE396E124912D933196A817B9078A
:10202000D1F781DF4AD980918414811122D880911F
:102030008314811177D880918214882341F0809194
:102040007B1490917C14019711F41092821480916A
:1020500081148111109281140E94FE030091771463
:10206000109178142091791430917A146B017C01CD
:10207000C01AD10AE20AF30A009103021091040285
:102080002091050230910602C016D106E206F30641
:1020900048F2609377147093781480937914909336
:1020A0007A148BB180588BB980917614882309F407
:1020B000B9CF0F2EF5E1EF2EF12CF02D05E216E150
:1020C00020E041E060E081E00E942F04ABCFEE0F02
:1020D000FF1F881F8BBF0790F691E02D1994F8948D
:0220E000FFCF30
:1020E200E80364F401000033672364333477AA33CE
:1020F200333333AA330017410043485259534C45F6
:10210200524343445343495343414E4E455277BB96
:10211200AA0045330017410043485259534C4552D7
:102122004343445343495343414E4E455277330050
:1021320017410043485259534C4552434344534379
:10214200495343414E4E455277BB000045239833D5
:102152000017410043485259534C4552434344539C
:1021620043495343414E4E4552773366332200333F
:102172000017410043485259534C4552434344537C
:1021820043495343414E4E45527788AABBCC330054
:00000001FF
